{
  "address": "0x7C148217c7f99504AbEB4582334c9189e5F11397",
  "abi": [
    {
      "inputs": [
        {
          "internalType": "address",
          "name": "_vusd",
          "type": "address"
        }
      ],
      "stateMutability": "nonpayable",
      "type": "constructor"
    },
    {
      "anonymous": false,
      "inputs": [
        {
          "indexed": false,
          "internalType": "uint256",
          "name": "previousMintingFee",
          "type": "uint256"
        },
        {
          "indexed": false,
          "internalType": "uint256",
          "name": "newMintingFee",
          "type": "uint256"
        }
      ],
      "name": "UpdatedMintingFee",
      "type": "event"
    },
    {
      "inputs": [],
      "name": "MAX_MINTING_FEE",
      "outputs": [
        {
          "internalType": "uint256",
          "name": "",
          "type": "uint256"
        }
      ],
      "stateMutability": "view",
      "type": "function"
    },
    {
      "inputs": [],
      "name": "MINT_LIMIT",
      "outputs": [
        {
          "internalType": "uint256",
          "name": "",
          "type": "uint256"
        }
      ],
      "stateMutability": "view",
      "type": "function"
    },
    {
      "inputs": [],
      "name": "NAME",
      "outputs": [
        {
          "internalType": "string",
          "name": "",
          "type": "string"
        }
      ],
      "stateMutability": "view",
      "type": "function"
    },
    {
      "inputs": [],
      "name": "VERSION",
      "outputs": [
        {
          "internalType": "string",
          "name": "",
          "type": "string"
        }
      ],
      "stateMutability": "view",
      "type": "function"
    },
    {
      "inputs": [
        {
          "internalType": "address",
          "name": "_token",
          "type": "address"
        },
        {
          "internalType": "address",
          "name": "_cToken",
          "type": "address"
        }
      ],
      "name": "addWhitelistedToken",
      "outputs": [],
      "stateMutability": "nonpayable",
      "type": "function"
    },
    {
      "inputs": [],
      "name": "availableMintage",
      "outputs": [
        {
          "internalType": "uint256",
          "name": "_mintage",
          "type": "uint256"
        }
      ],
      "stateMutability": "view",
      "type": "function"
    },
    {
      "inputs": [
        {
          "internalType": "address",
          "name": "",
          "type": "address"
        }
      ],
      "name": "cTokens",
      "outputs": [
        {
          "internalType": "address",
          "name": "",
          "type": "address"
        }
      ],
      "stateMutability": "view",
      "type": "function"
    },
    {
      "inputs": [
        {
          "internalType": "address",
          "name": "_token",
          "type": "address"
        },
        {
          "internalType": "uint256",
          "name": "_amount",
          "type": "uint256"
        }
      ],
      "name": "calculateMintage",
      "outputs": [
        {
          "internalType": "uint256",
          "name": "_mintReturn",
          "type": "uint256"
        }
      ],
      "stateMutability": "view",
      "type": "function"
    },
    {
      "inputs": [],
      "name": "governor",
      "outputs": [
        {
          "internalType": "address",
          "name": "",
          "type": "address"
        }
      ],
      "stateMutability": "view",
      "type": "function"
    },
    {
      "inputs": [
        {
          "internalType": "address",
          "name": "_token",
          "type": "address"
        },
        {
          "internalType": "uint256",
          "name": "_amount",
          "type": "uint256"
        }
      ],
      "name": "mint",
      "outputs": [],
      "stateMutability": "nonpayable",
      "type": "function"
    },
    {
      "inputs": [],
      "name": "mintingFee",
      "outputs": [
        {
          "internalType": "uint256",
          "name": "",
          "type": "uint256"
        }
      ],
      "stateMutability": "view",
      "type": "function"
    },
    {
      "inputs": [
        {
          "internalType": "address",
          "name": "_token",
          "type": "address"
        }
      ],
      "name": "removeWhitelistedToken",
      "outputs": [],
      "stateMutability": "nonpayable",
      "type": "function"
    },
    {
      "inputs": [],
      "name": "treasury",
      "outputs": [
        {
          "internalType": "address",
          "name": "",
          "type": "address"
        }
      ],
      "stateMutability": "view",
      "type": "function"
    },
    {
      "inputs": [
        {
          "internalType": "uint256",
          "name": "_newMintingFee",
          "type": "uint256"
        }
      ],
      "name": "updateMintingFee",
      "outputs": [],
      "stateMutability": "nonpayable",
      "type": "function"
    },
    {
      "inputs": [],
      "name": "vusd",
      "outputs": [
        {
          "internalType": "contract IVUSD",
          "name": "",
          "type": "address"
        }
      ],
      "stateMutability": "view",
      "type": "function"
    },
    {
      "inputs": [],
      "name": "whitelistedTokens",
      "outputs": [
        {
          "internalType": "contract IAddressList",
          "name": "",
          "type": "address"
        }
      ],
      "stateMutability": "view",
      "type": "function"
    }
  ],
  "transactionHash": "0x7b03162869581d57fcd2932803b2e38dac3630111c532c6add10f5c3475d3092",
  "args": [
    "0x677ddbd918637E5F2c79e164D402454dE7dA8619"
  ],
  "solcInputHash": "2ca97e329a6a43c8b41836cde7a46ae4",
  "bytecode": "0x60c06040523480156200001157600080fd5b506040516200349e3803806200349e83398181016040528101906200003791906200087b565b6001600081905550600073ffffffffffffffffffffffffffffffffffffffff168173ffffffffffffffffffffffffffffffffffffffff161415620000b2576040517f08c379a0000000000000000000000000000000000000000000000000000000008152600401620000a99062000b37565b60405180910390fd5b8073ffffffffffffffffffffffffffffffffffffffff1660a08173ffffffffffffffffffffffffffffffffffffffff1660601b81525050600073ded8217de022706a191ee7ee0dc9df1185fb5da3905060008173ffffffffffffffffffffffffffffffffffffffff16630fab4d256040518163ffffffff1660e01b8152600401602060405180830381600087803b1580156200014d57600080fd5b505af115801562000162573d6000803e3d6000fd5b505050506040513d601f19601f820116820180604052508101906200018891906200087b565b9050620001c581736b175474e89094c44da98b954eedeac495271d0f735d3a536e4d6dbd6114cc1ead35777bab948e36436200027b60201b60201c565b620002008173a0b86991c6218b36c1d19d4a2e9eb0ce3606eb487339aa39c021dfbae8fac545936693ac917d5e75636200027b60201b60201c565b6200023b8173dac17f958d2ee523a2206206994597c13d831ec773f650c3d88d12db855b8bf7d11be6c55a4e07dcc96200027b60201b60201c565b8073ffffffffffffffffffffffffffffffffffffffff1660808173ffffffffffffffffffffffffffffffffffffffff1660601b8152505050505062000e7c565b8273ffffffffffffffffffffffffffffffffffffffff16630a3b0a4f836040518263ffffffff1660e01b8152600401620002b6919062000a9c565b602060405180830381600087803b158015620002d157600080fd5b505af1158015620002e6573d6000803e3d6000fd5b505050506040513d601f19601f820116820180604052508101906200030c9190620008a7565b6200034e576040517f08c379a0000000000000000000000000000000000000000000000000000000008152600401620003459062000b7b565b60405180910390fd5b80600260008473ffffffffffffffffffffffffffffffffffffffff1673ffffffffffffffffffffffffffffffffffffffff16815260200190815260200160002060006101000a81548173ffffffffffffffffffffffffffffffffffffffff021916908373ffffffffffffffffffffffffffffffffffffffff1602179055506200041e817fffffffffffffffffffffffffffffffffffffffffffffffffffffffffffffffff8473ffffffffffffffffffffffffffffffffffffffff166200042360201b62000ff4179092919060201c565b505050565b6000811480620004c3575060008373ffffffffffffffffffffffffffffffffffffffff1663dd62ed3e30856040518363ffffffff1660e01b81526004016200046d92919062000ab9565b60206040518083038186803b1580156200048657600080fd5b505afa1580156200049b573d6000803e3d6000fd5b505050506040513d601f19601f82011682018060405250810190620004c19190620008d3565b145b62000505576040517f08c379a0000000000000000000000000000000000000000000000000000000008152600401620004fc9062000be1565b60405180910390fd5b620005908363095ea7b360e01b84846040516024016200052792919062000ae6565b604051602081830303815290604052907bffffffffffffffffffffffffffffffffffffffffffffffffffffffff19166020820180517bffffffffffffffffffffffffffffffffffffffffffffffffffffffff83818316178352505050506200059560201b60201c565b505050565b6000620005fe826040518060400160405280602081526020017f5361666545524332303a206c6f772d6c6576656c2063616c6c206661696c65648152508573ffffffffffffffffffffffffffffffffffffffff166200066960201b62001152179092919060201c565b9050600081511115620006645780806020019051810190620006219190620008a7565b62000663576040517f08c379a00000000000000000000000000000000000000000000000000000000081526004016200065a9062000bbf565b60405180910390fd5b5b505050565b60606200068084846000856200068960201b60201c565b90509392505050565b606082471015620006d1576040517f08c379a0000000000000000000000000000000000000000000000000000000008152600401620006c89062000b59565b60405180910390fd5b620006e285620007b760201b60201c565b62000724576040517f08c379a00000000000000000000000000000000000000000000000000000000081526004016200071b9062000b9d565b60405180910390fd5b6000808673ffffffffffffffffffffffffffffffffffffffff1685876040516200074f919062000a83565b60006040518083038185875af1925050503d80600081146200078e576040519150601f19603f3d011682016040523d82523d6000602084013e62000793565b606091505b5091509150620007ab828286620007ca60201b60201c565b92505050949350505050565b600080823b905060008111915050919050565b60608315620007dc578290506200082f565b600083511115620007f05782518084602001fd5b816040517f08c379a000000000000000000000000000000000000000000000000000000000815260040162000826919062000b13565b60405180910390fd5b9392505050565b600081519050620008478162000e2e565b92915050565b6000815190506200085e8162000e48565b92915050565b600081519050620008758162000e62565b92915050565b6000602082840312156200088e57600080fd5b60006200089e8482850162000836565b91505092915050565b600060208284031215620008ba57600080fd5b6000620008ca848285016200084d565b91505092915050565b600060208284031215620008e657600080fd5b6000620008f68482850162000864565b91505092915050565b6200090a8162000c35565b82525050565b60006200091d8262000c03565b62000929818562000c19565b93506200093b81856020860162000c7f565b80840191505092915050565b6000620009548262000c0e565b62000960818562000c24565b93506200097281856020860162000c7f565b6200097d8162000cb5565b840191505092915050565b60006200099760148362000c24565b9150620009a48262000cc6565b602082019050919050565b6000620009be60268362000c24565b9150620009cb8262000cef565b604082019050919050565b6000620009e560128362000c24565b9150620009f28262000d3e565b602082019050919050565b600062000a0c601d8362000c24565b915062000a198262000d67565b602082019050919050565b600062000a33602a8362000c24565b915062000a408262000d90565b604082019050919050565b600062000a5a60368362000c24565b915062000a678262000ddf565b604082019050919050565b62000a7d8162000c75565b82525050565b600062000a91828462000910565b915081905092915050565b600060208201905062000ab36000830184620008ff565b92915050565b600060408201905062000ad06000830185620008ff565b62000adf6020830184620008ff565b9392505050565b600060408201905062000afd6000830185620008ff565b62000b0c602083018462000a72565b9392505050565b6000602082019050818103600083015262000b2f818462000947565b905092915050565b6000602082019050818103600083015262000b528162000988565b9050919050565b6000602082019050818103600083015262000b7481620009af565b9050919050565b6000602082019050818103600083015262000b9681620009d6565b9050919050565b6000602082019050818103600083015262000bb881620009fd565b9050919050565b6000602082019050818103600083015262000bda8162000a24565b9050919050565b6000602082019050818103600083015262000bfc8162000a4b565b9050919050565b600081519050919050565b600081519050919050565b600081905092915050565b600082825260208201905092915050565b600062000c428262000c55565b9050919050565b60008115159050919050565b600073ffffffffffffffffffffffffffffffffffffffff82169050919050565b6000819050919050565b60005b8381101562000c9f57808201518184015260208101905062000c82565b8381111562000caf576000848401525b50505050565b6000601f19601f8301169050919050565b7f767573642d616464726573732d69732d7a65726f000000000000000000000000600082015250565b7f416464726573733a20696e73756666696369656e742062616c616e636520666f60008201527f722063616c6c0000000000000000000000000000000000000000000000000000602082015250565b7f6164642d696e2d6c6973742d6661696c65640000000000000000000000000000600082015250565b7f416464726573733a2063616c6c20746f206e6f6e2d636f6e7472616374000000600082015250565b7f5361666545524332303a204552433230206f7065726174696f6e20646964206e60008201527f6f74207375636365656400000000000000000000000000000000000000000000602082015250565b7f5361666545524332303a20617070726f76652066726f6d206e6f6e2d7a65726f60008201527f20746f206e6f6e2d7a65726f20616c6c6f77616e636500000000000000000000602082015250565b62000e398162000c35565b811462000e4557600080fd5b50565b62000e538162000c49565b811462000e5f57600080fd5b50565b62000e6d8162000c75565b811462000e7957600080fd5b50565b60805160601c60a05160601c6125be62000ee0600039600081816103bf01528181610ac801528181610c5401528181610d390152610f99015260008181610382015281816104de0152818161076901528181610b6c0152610d1301526125be6000f3fe608060405234801561001057600080fd5b50600436106101005760003560e01c80635e1762a011610097578063a3f4df7e11610066578063a3f4df7e1461028b578063c0275a25146102a9578063edac5203146102c5578063ffa1ad74146102e357610100565b80635e1762a01461020157806361d027b31461021f57806388b78aaa1461023d5780638c0b09d01461025b57610100565b806340c10f19116100d357806340c10f1914610179578063482b6014146101955780635166c96a146101c55780635a64ad95146101e357610100565b806301ac85591461010557806302775240146101215780630c340a241461013f5780631c88705d1461015d575b600080fd5b61011f600480360381019061011a919061182d565b610301565b005b6101296103ac565b6040516101369190611ea1565b60405180910390f35b6101476103bb565b6040516101549190611bdc565b60405180910390f35b610177600480360381019061017291906117db565b610460565b005b610193600480360381019061018e9190611869565b610719565b005b6101af60048036038101906101aa9190611869565b610b68565b6040516101bc9190611ea1565b60405180910390f35b6101cd610c50565b6040516101da9190611ea1565b60405180910390f35b6101eb610d0b565b6040516101f89190611ea1565b60405180910390f35b610209610d11565b6040516102169190611ca9565b60405180910390f35b610227610d35565b6040516102349190611bdc565b60405180910390f35b610245610dda565b6040516102529190611ea1565b60405180910390f35b610275600480360381019061027091906117db565b610de0565b6040516102829190611bdc565b60405180910390f35b610293610e13565b6040516102a09190611cdf565b60405180910390f35b6102c360048036038101906102be91906118ce565b610e4c565b005b6102cd610f97565b6040516102da9190611cc4565b60405180910390f35b6102eb610fbb565b6040516102f89190611cdf565b60405180910390f35b6103096103bb565b73ffffffffffffffffffffffffffffffffffffffff1661032761116a565b73ffffffffffffffffffffffffffffffffffffffff161461037d576040517f08c379a000000000000000000000000000000000000000000000000000000000815260040161037490611d21565b60405180910390fd5b6103a87f00000000000000000000000000000000000000000000000000000000000000008383611172565b5050565b6a295be96e6406697200000081565b60007f000000000000000000000000000000000000000000000000000000000000000073ffffffffffffffffffffffffffffffffffffffff16630c340a246040518163ffffffff1660e01b815260040160206040518083038186803b15801561042357600080fd5b505afa158015610437573d6000803e3d6000fd5b505050506040513d601f19601f8201168201806040525081019061045b9190611804565b905090565b6104686103bb565b73ffffffffffffffffffffffffffffffffffffffff1661048661116a565b73ffffffffffffffffffffffffffffffffffffffff16146104dc576040517f08c379a00000000000000000000000000000000000000000000000000000000081526004016104d390611d21565b60405180910390fd5b7f000000000000000000000000000000000000000000000000000000000000000073ffffffffffffffffffffffffffffffffffffffff166329092d0e826040518263ffffffff1660e01b81526004016105359190611bdc565b602060405180830381600087803b15801561054f57600080fd5b505af1158015610563573d6000803e3d6000fd5b505050506040513d601f19601f8201168201806040525081019061058791906118a5565b6105c6576040517f08c379a00000000000000000000000000000000000000000000000000000000081526004016105bd90611d81565b60405180910390fd5b8073ffffffffffffffffffffffffffffffffffffffff1663095ea7b3600260008473ffffffffffffffffffffffffffffffffffffffff1673ffffffffffffffffffffffffffffffffffffffff16815260200190815260200160002060009054906101000a900473ffffffffffffffffffffffffffffffffffffffff1660006040518363ffffffff1660e01b8152600401610661929190611c57565b602060405180830381600087803b15801561067b57600080fd5b505af115801561068f573d6000803e3d6000fd5b505050506040513d601f19601f820116820180604052508101906106b391906118a5565b50600260008273ffffffffffffffffffffffffffffffffffffffff1673ffffffffffffffffffffffffffffffffffffffff16815260200190815260200160002060006101000a81549073ffffffffffffffffffffffffffffffffffffffff021916905550565b6002600054141561075f576040517f08c379a000000000000000000000000000000000000000000000000000000000815260040161075690611e61565b60405180910390fd5b60026000819055507f000000000000000000000000000000000000000000000000000000000000000073ffffffffffffffffffffffffffffffffffffffff16635dbe47e8836040518263ffffffff1660e01b81526004016107c09190611bdc565b60206040518083038186803b1580156107d857600080fd5b505afa1580156107ec573d6000803e3d6000fd5b505050506040513d601f19601f8201168201806040525081019061081091906118a5565b61084f576040517f08c379a000000000000000000000000000000000000000000000000000000000815260040161084690611d41565b60405180910390fd5b600061085b838361130a565b905080610866610c50565b10156108a7576040517f08c379a000000000000000000000000000000000000000000000000000000000815260040161089e90611da1565b60405180910390fd5b6108db6108b261116a565b30848673ffffffffffffffffffffffffffffffffffffffff166113f9909392919063ffffffff16565b6000600260008573ffffffffffffffffffffffffffffffffffffffff1673ffffffffffffffffffffffffffffffffffffffff16815260200190815260200160002060009054906101000a900473ffffffffffffffffffffffffffffffffffffffff16905060008173ffffffffffffffffffffffffffffffffffffffff1663a0712d68856040518263ffffffff1660e01b815260040161097a9190611ea1565b602060405180830381600087803b15801561099457600080fd5b505af11580156109a8573d6000803e3d6000fd5b505050506040513d601f19601f820116820180604052508101906109cc91906118f7565b14610a0c576040517f08c379a0000000000000000000000000000000000000000000000000000000008152600401610a0390611e21565b60405180910390fd5b610ac6610a17610d35565b8273ffffffffffffffffffffffffffffffffffffffff166370a08231306040518263ffffffff1660e01b8152600401610a509190611bdc565b60206040518083038186803b158015610a6857600080fd5b505afa158015610a7c573d6000803e3d6000fd5b505050506040513d601f19601f82011682018060405250810190610aa091906118f7565b8373ffffffffffffffffffffffffffffffffffffffff166114829092919063ffffffff16565b7f000000000000000000000000000000000000000000000000000000000000000073ffffffffffffffffffffffffffffffffffffffff166340c10f19610b0a61116a565b846040518363ffffffff1660e01b8152600401610b28929190611c80565b600060405180830381600087803b158015610b4257600080fd5b505af1158015610b56573d6000803e3d6000fd5b50505050505060016000819055505050565b60007f000000000000000000000000000000000000000000000000000000000000000073ffffffffffffffffffffffffffffffffffffffff16635dbe47e8846040518263ffffffff1660e01b8152600401610bc39190611bdc565b60206040518083038186803b158015610bdb57600080fd5b505afa158015610bef573d6000803e3d6000fd5b505050506040513d601f19601f82011682018060405250810190610c1391906118a5565b15610c45576000610c24848461130a565b9050610c2e610c50565b8111610c3a5780610c3d565b60005b915050610c4a565b600090505b92915050565b60007f000000000000000000000000000000000000000000000000000000000000000073ffffffffffffffffffffffffffffffffffffffff166318160ddd6040518163ffffffff1660e01b815260040160206040518083038186803b158015610cb857600080fd5b505afa158015610ccc573d6000803e3d6000fd5b505050506040513d601f19601f82011682018060405250810190610cf091906118f7565b6a295be96e64066972000000610d069190612113565b905090565b60015481565b7f000000000000000000000000000000000000000000000000000000000000000081565b60007f000000000000000000000000000000000000000000000000000000000000000073ffffffffffffffffffffffffffffffffffffffff166361d027b36040518163ffffffff1660e01b815260040160206040518083038186803b158015610d9d57600080fd5b505afa158015610db1573d6000803e3d6000fd5b505050506040513d601f19601f82011682018060405250810190610dd59190611804565b905090565b61271081565b60026020528060005260406000206000915054906101000a900473ffffffffffffffffffffffffffffffffffffffff1681565b6040518060400160405280600b81526020017f565553442d4d696e74657200000000000000000000000000000000000000000081525081565b610e546103bb565b73ffffffffffffffffffffffffffffffffffffffff16610e7261116a565b73ffffffffffffffffffffffffffffffffffffffff1614610ec8576040517f08c379a0000000000000000000000000000000000000000000000000000000008152600401610ebf90611d21565b60405180910390fd5b612710811115610f0d576040517f08c379a0000000000000000000000000000000000000000000000000000000008152600401610f0490611dc1565b60405180910390fd5b806001541415610f52576040517f08c379a0000000000000000000000000000000000000000000000000000000008152600401610f4990611e41565b60405180910390fd5b7f85735a3ef929fdaaf946ddf4b97deec396e7347cbb47fea3d6a8f3934e1b02e360015482604051610f85929190611ebc565b60405180910390a18060018190555050565b7f000000000000000000000000000000000000000000000000000000000000000081565b6040518060400160405280600581526020017f312e312e3000000000000000000000000000000000000000000000000000000081525081565b600081148061108d575060008373ffffffffffffffffffffffffffffffffffffffff1663dd62ed3e30856040518363ffffffff1660e01b815260040161103b929190611bf7565b60206040518083038186803b15801561105357600080fd5b505afa158015611067573d6000803e3d6000fd5b505050506040513d601f19601f8201168201806040525081019061108b91906118f7565b145b6110cc576040517f08c379a00000000000000000000000000000000000000000000000000000000081526004016110c390611e81565b60405180910390fd5b61114d8363095ea7b360e01b84846040516024016110eb929190611c80565b604051602081830303815290604052907bffffffffffffffffffffffffffffffffffffffffffffffffffffffff19166020820180517bffffffffffffffffffffffffffffffffffffffffffffffffffffffff8381831617835250505050611508565b505050565b606061116184846000856115cf565b90509392505050565b600033905090565b8273ffffffffffffffffffffffffffffffffffffffff16630a3b0a4f836040518263ffffffff1660e01b81526004016111ab9190611bdc565b602060405180830381600087803b1580156111c557600080fd5b505af11580156111d9573d6000803e3d6000fd5b505050506040513d601f19601f820116820180604052508101906111fd91906118a5565b61123c576040517f08c379a000000000000000000000000000000000000000000000000000000000815260040161123390611d61565b60405180910390fd5b80600260008473ffffffffffffffffffffffffffffffffffffffff1673ffffffffffffffffffffffffffffffffffffffff16815260200190815260200160002060006101000a81548173ffffffffffffffffffffffffffffffffffffffff021916908373ffffffffffffffffffffffffffffffffffffffff160217905550611305817fffffffffffffffffffffffffffffffffffffffffffffffffffffffffffffffff8473ffffffffffffffffffffffffffffffffffffffff16610ff49092919063ffffffff16565b505050565b6000808373ffffffffffffffffffffffffffffffffffffffff1663313ce5676040518163ffffffff1660e01b815260040160206040518083038186803b15801561135357600080fd5b505afa158015611367573d6000803e3d6000fd5b505050506040513d601f19601f8201168201806040525081019061138b9190611920565b60ff16905060008060015414156113a257836113c9565b612710600154856113b391906120b9565b6113bd9190611f17565b846113c89190612113565b5b90508160126113d89190612113565b600a6113e49190611f9b565b816113ef91906120b9565b9250505092915050565b61147c846323b872dd60e01b85858560405160240161141a93929190611c20565b604051602081830303815290604052907bffffffffffffffffffffffffffffffffffffffffffffffffffffffff19166020820180517bffffffffffffffffffffffffffffffffffffffffffffffffffffffff8381831617835250505050611508565b50505050565b6115038363a9059cbb60e01b84846040516024016114a1929190611c80565b604051602081830303815290604052907bffffffffffffffffffffffffffffffffffffffffffffffffffffffff19166020820180517bffffffffffffffffffffffffffffffffffffffffffffffffffffffff8381831617835250505050611508565b505050565b600061156a826040518060400160405280602081526020017f5361666545524332303a206c6f772d6c6576656c2063616c6c206661696c65648152508573ffffffffffffffffffffffffffffffffffffffff166111529092919063ffffffff16565b90506000815111156115ca578080602001905181019061158a91906118a5565b6115c9576040517f08c379a00000000000000000000000000000000000000000000000000000000081526004016115c090611e01565b60405180910390fd5b5b505050565b606082471015611614576040517f08c379a000000000000000000000000000000000000000000000000000000000815260040161160b90611d01565b60405180910390fd5b61161d856116e3565b61165c576040517f08c379a000000000000000000000000000000000000000000000000000000000815260040161165390611de1565b60405180910390fd5b6000808673ffffffffffffffffffffffffffffffffffffffff1685876040516116859190611bc5565b60006040518083038185875af1925050503d80600081146116c2576040519150601f19603f3d011682016040523d82523d6000602084013e6116c7565b606091505b50915091506116d78282866116f6565b92505050949350505050565b600080823b905060008111915050919050565b6060831561170657829050611756565b6000835111156117195782518084602001fd5b816040517f08c379a000000000000000000000000000000000000000000000000000000000815260040161174d9190611cdf565b60405180910390fd5b9392505050565b60008135905061176c8161252c565b92915050565b6000815190506117818161252c565b92915050565b60008151905061179681612543565b92915050565b6000813590506117ab8161255a565b92915050565b6000815190506117c08161255a565b92915050565b6000815190506117d581612571565b92915050565b6000602082840312156117ed57600080fd5b60006117fb8482850161175d565b91505092915050565b60006020828403121561181657600080fd5b600061182484828501611772565b91505092915050565b6000806040838503121561184057600080fd5b600061184e8582860161175d565b925050602061185f8582860161175d565b9150509250929050565b6000806040838503121561187c57600080fd5b600061188a8582860161175d565b925050602061189b8582860161179c565b9150509250929050565b6000602082840312156118b757600080fd5b60006118c584828501611787565b91505092915050565b6000602082840312156118e057600080fd5b60006118ee8482850161179c565b91505092915050565b60006020828403121561190957600080fd5b6000611917848285016117b1565b91505092915050565b60006020828403121561193257600080fd5b6000611940848285016117c6565b91505092915050565b61195281612147565b82525050565b600061196382611ee5565b61196d8185611efb565b935061197d8185602086016121f6565b80840191505092915050565b6119928161219c565b82525050565b6119a1816121c0565b82525050565b6119b0816121e4565b82525050565b60006119c182611ef0565b6119cb8185611f06565b93506119db8185602086016121f6565b6119e481612287565b840191505092915050565b60006119fc602683611f06565b9150611a07826122a5565b604082019050919050565b6000611a1f601a83611f06565b9150611a2a826122f4565b602082019050919050565b6000611a42601683611f06565b9150611a4d8261231d565b602082019050919050565b6000611a65601283611f06565b9150611a7082612346565b602082019050919050565b6000611a88601783611f06565b9150611a938261236f565b602082019050919050565b6000611aab601283611f06565b9150611ab682612398565b602082019050919050565b6000611ace601983611f06565b9150611ad9826123c1565b602082019050919050565b6000611af1601d83611f06565b9150611afc826123ea565b602082019050919050565b6000611b14602a83611f06565b9150611b1f82612413565b604082019050919050565b6000611b37601283611f06565b9150611b4282612462565b602082019050919050565b6000611b5a601083611f06565b9150611b658261248b565b602082019050919050565b6000611b7d601f83611f06565b9150611b88826124b4565b602082019050919050565b6000611ba0603683611f06565b9150611bab826124dd565b604082019050919050565b611bbf81612185565b82525050565b6000611bd18284611958565b915081905092915050565b6000602082019050611bf16000830184611949565b92915050565b6000604082019050611c0c6000830185611949565b611c196020830184611949565b9392505050565b6000606082019050611c356000830186611949565b611c426020830185611949565b611c4f6040830184611bb6565b949350505050565b6000604082019050611c6c6000830185611949565b611c7960208301846119a7565b9392505050565b6000604082019050611c956000830185611949565b611ca26020830184611bb6565b9392505050565b6000602082019050611cbe6000830184611989565b92915050565b6000602082019050611cd96000830184611998565b92915050565b60006020820190508181036000830152611cf981846119b6565b905092915050565b60006020820190508181036000830152611d1a816119ef565b9050919050565b60006020820190508181036000830152611d3a81611a12565b9050919050565b60006020820190508181036000830152611d5a81611a35565b9050919050565b60006020820190508181036000830152611d7a81611a58565b9050919050565b60006020820190508181036000830152611d9a81611a7b565b9050919050565b60006020820190508181036000830152611dba81611a9e565b9050919050565b60006020820190508181036000830152611dda81611ac1565b9050919050565b60006020820190508181036000830152611dfa81611ae4565b9050919050565b60006020820190508181036000830152611e1a81611b07565b9050919050565b60006020820190508181036000830152611e3a81611b2a565b9050919050565b60006020820190508181036000830152611e5a81611b4d565b9050919050565b60006020820190508181036000830152611e7a81611b70565b9050919050565b60006020820190508181036000830152611e9a81611b93565b9050919050565b6000602082019050611eb66000830184611bb6565b92915050565b6000604082019050611ed16000830185611bb6565b611ede6020830184611bb6565b9392505050565b600081519050919050565b600081519050919050565b600081905092915050565b600082825260208201905092915050565b6000611f2282612185565b9150611f2d83612185565b925082611f3d57611f3c612258565b5b828204905092915050565b6000808291508390505b6001851115611f9257808604811115611f6e57611f6d612229565b5b6001851615611f7d5780820291505b8081029050611f8b85612298565b9450611f52565b94509492505050565b6000611fa682612185565b9150611fb183612185565b9250611fde7fffffffffffffffffffffffffffffffffffffffffffffffffffffffffffffffff8484611fe6565b905092915050565b600082611ff657600190506120b2565b8161200457600090506120b2565b816001811461201a576002811461202457612053565b60019150506120b2565b60ff84111561203657612035612229565b5b8360020a91508482111561204d5761204c612229565b5b506120b2565b5060208310610133831016604e8410600b84101617156120885782820a90508381111561208357612082612229565b5b6120b2565b6120958484846001611f48565b925090508184048111156120ac576120ab612229565b5b81810290505b9392505050565b60006120c482612185565b91506120cf83612185565b9250817fffffffffffffffffffffffffffffffffffffffffffffffffffffffffffffffff048311821515161561210857612107612229565b5b828202905092915050565b600061211e82612185565b915061212983612185565b92508282101561213c5761213b612229565b5b828203905092915050565b600061215282612165565b9050919050565b60008115159050919050565b600073ffffffffffffffffffffffffffffffffffffffff82169050919050565b6000819050919050565b600060ff82169050919050565b60006121a7826121ae565b9050919050565b60006121b982612165565b9050919050565b60006121cb826121d2565b9050919050565b60006121dd82612165565b9050919050565b60006121ef82612185565b9050919050565b60005b838110156122145780820151818401526020810190506121f9565b83811115612223576000848401525b50505050565b7f4e487b7100000000000000000000000000000000000000000000000000000000600052601160045260246000fd5b7f4e487b7100000000000000000000000000000000000000000000000000000000600052601260045260246000fd5b6000601f19601f8301169050919050565b60008160011c9050919050565b7f416464726573733a20696e73756666696369656e742062616c616e636520666f60008201527f722063616c6c0000000000000000000000000000000000000000000000000000602082015250565b7f63616c6c65722d69732d6e6f742d7468652d676f7665726e6f72000000000000600082015250565b7f746f6b656e2d69732d6e6f742d737570706f7274656400000000000000000000600082015250565b7f6164642d696e2d6c6973742d6661696c65640000000000000000000000000000600082015250565b7f72656d6f76652d66726f6d2d6c6973742d6661696c6564000000000000000000600082015250565b7f6d696e742d6c696d69742d726561636865640000000000000000000000000000600082015250565b7f6d696e74696e672d6665652d6c696d69742d7265616368656400000000000000600082015250565b7f416464726573733a2063616c6c20746f206e6f6e2d636f6e7472616374000000600082015250565b7f5361666545524332303a204552433230206f7065726174696f6e20646964206e60008201527f6f74207375636365656400000000000000000000000000000000000000000000602082015250565b7f63546f6b656e2d6d696e742d6661696c65640000000000000000000000000000600082015250565b7f73616d652d6d696e74696e672d66656500000000000000000000000000000000600082015250565b7f5265656e7472616e637947756172643a207265656e7472616e742063616c6c00600082015250565b7f5361666545524332303a20617070726f76652066726f6d206e6f6e2d7a65726f60008201527f20746f206e6f6e2d7a65726f20616c6c6f77616e636500000000000000000000602082015250565b61253581612147565b811461254057600080fd5b50565b61254c81612159565b811461255757600080fd5b50565b61256381612185565b811461256e57600080fd5b50565b61257a8161218f565b811461258557600080fd5b5056fea2646970667358221220d72ad7e80969ed7285503bf3007540c21dce1432427a545f46c29e6bc6c6264664736f6c63430008030033",
  "devdoc": {
    "kind": "dev",
    "methods": {
      "addWhitelistedToken(address,address)": {
        "details": "Add token address in whitelistedTokens list and add cToken in mapping",
        "params": {
          "_cToken": "CToken address correspond to _token",
          "_token": "address which we want to add in token list."
        }
      },
      "calculateMintage(address,uint256)": {
        "params": {
          "_amount": "Amount of _token",
          "_token": "Address of token which will be deposited for this mintage"
        }
      },
      "governor()": {
        "details": "Governor is defined in VUSD token contract only"
      },
      "mint(address,uint256)": {
        "params": {
          "_amount": "Amount of _token",
          "_token": "Address of token being deposited"
        }
      },
      "removeWhitelistedToken(address)": {
        "params": {
          "_token": "address which we want to remove from token list."
        }
      },
      "treasury()": {
        "details": "Treasury is defined in VUSD token contract only"
      }
    },
    "title": "Minter contract which will mint VUSD 1:1, less minting fee, with DAI, USDC or USDT.",
    "version": 1
  },
  "userdoc": {
    "kind": "user",
    "methods": {
      "addWhitelistedToken(address,address)": {
        "notice": "Add token as whitelisted token for VUSD system"
      },
      "availableMintage()": {
        "notice": "Check available mintage based on mint limit"
      },
      "calculateMintage(address,uint256)": {
        "notice": "Calculate mintage for supported tokens."
      },
      "mint(address,uint256)": {
        "notice": "Mint VUSD"
      },
      "removeWhitelistedToken(address)": {
        "notice": "Remove token from whitelisted tokens"
      },
      "updateMintingFee(uint256)": {
        "notice": "Update minting fee"
      }
    },
    "version": 1
  },
  "storageLayout": {
    "storage": [
      {
        "astId": 10,
        "contract": "contracts/Minter.sol:Minter",
        "label": "_status",
        "offset": 0,
        "slot": "0",
        "type": "t_uint256"
      },
      {
        "astId": 1938,
        "contract": "contracts/Minter.sol:Minter",
        "label": "mintingFee",
        "offset": 0,
        "slot": "1",
        "type": "t_uint256"
      },
      {
        "astId": 1952,
        "contract": "contracts/Minter.sol:Minter",
        "label": "cTokens",
        "offset": 0,
        "slot": "2",
        "type": "t_mapping(t_address,t_address)"
      }
    ],
    "types": {
      "t_address": {
        "encoding": "inplace",
        "label": "address",
        "numberOfBytes": "20"
      },
      "t_mapping(t_address,t_address)": {
        "encoding": "mapping",
        "key": "t_address",
        "label": "mapping(address => address)",
        "numberOfBytes": "32",
        "value": "t_address"
      },
      "t_uint256": {
        "encoding": "inplace",
        "label": "uint256",
        "numberOfBytes": "32"
      }
    }
  }
}