{
  "address": "0x7915CE4F43E1378f0C3720351A973A023F7fB3e8",
  "abi": [
    {
      "inputs": [
        {
          "internalType": "address",
          "name": "_vusd",
          "type": "address"
        }
      ],
      "stateMutability": "nonpayable",
      "type": "constructor"
    },
    {
      "anonymous": false,
      "inputs": [
        {
          "indexed": false,
          "internalType": "uint256",
          "name": "previousRedeemFee",
          "type": "uint256"
        },
        {
          "indexed": false,
          "internalType": "uint256",
          "name": "newRedeemFee",
          "type": "uint256"
        }
      ],
      "name": "UpdatedRedeemFee",
      "type": "event"
    },
    {
      "inputs": [],
      "name": "MAX_REDEEM_FEE",
      "outputs": [
        {
          "internalType": "uint256",
          "name": "",
          "type": "uint256"
        }
      ],
      "stateMutability": "view",
      "type": "function"
    },
    {
      "inputs": [],
      "name": "NAME",
      "outputs": [
        {
          "internalType": "string",
          "name": "",
          "type": "string"
        }
      ],
      "stateMutability": "view",
      "type": "function"
    },
    {
      "inputs": [],
      "name": "VERSION",
      "outputs": [
        {
          "internalType": "string",
          "name": "",
          "type": "string"
        }
      ],
      "stateMutability": "view",
      "type": "function"
    },
    {
      "inputs": [],
      "name": "governor",
      "outputs": [
        {
          "internalType": "address",
          "name": "",
          "type": "address"
        }
      ],
      "stateMutability": "view",
      "type": "function"
    },
    {
      "inputs": [
        {
          "internalType": "address",
          "name": "_token",
          "type": "address"
        },
        {
          "internalType": "uint256",
          "name": "_vusdAmount",
          "type": "uint256"
        }
      ],
      "name": "redeem",
      "outputs": [],
      "stateMutability": "nonpayable",
      "type": "function"
    },
    {
      "inputs": [
        {
          "internalType": "address",
          "name": "_token",
          "type": "address"
        },
        {
          "internalType": "uint256",
          "name": "_vusdAmount",
          "type": "uint256"
        },
        {
          "internalType": "address",
          "name": "_tokenReceiver",
          "type": "address"
        }
      ],
      "name": "redeem",
      "outputs": [],
      "stateMutability": "nonpayable",
      "type": "function"
    },
    {
      "inputs": [],
      "name": "redeemFee",
      "outputs": [
        {
          "internalType": "uint256",
          "name": "",
          "type": "uint256"
        }
      ],
      "stateMutability": "view",
      "type": "function"
    },
    {
      "inputs": [
        {
          "internalType": "address",
          "name": "_token",
          "type": "address"
        }
      ],
      "name": "redeemable",
      "outputs": [
        {
          "internalType": "uint256",
          "name": "",
          "type": "uint256"
        }
      ],
      "stateMutability": "view",
      "type": "function"
    },
    {
      "inputs": [
        {
          "internalType": "address",
          "name": "_token",
          "type": "address"
        },
        {
          "internalType": "uint256",
          "name": "_vusdAmount",
          "type": "uint256"
        }
      ],
      "name": "redeemable",
      "outputs": [
        {
          "internalType": "uint256",
          "name": "",
          "type": "uint256"
        }
      ],
      "stateMutability": "view",
      "type": "function"
    },
    {
      "inputs": [],
      "name": "treasury",
      "outputs": [
        {
          "internalType": "address",
          "name": "",
          "type": "address"
        }
      ],
      "stateMutability": "view",
      "type": "function"
    },
    {
      "inputs": [
        {
          "internalType": "uint256",
          "name": "_newRedeemFee",
          "type": "uint256"
        }
      ],
      "name": "updateRedeemFee",
      "outputs": [],
      "stateMutability": "nonpayable",
      "type": "function"
    },
    {
      "inputs": [],
      "name": "vusd",
      "outputs": [
        {
          "internalType": "contract IVUSD",
          "name": "",
          "type": "address"
        }
      ],
      "stateMutability": "view",
      "type": "function"
    }
  ],
  "transactionHash": "0x36c914bf1144f0a8e4296dcd38a1ff5e073da0c44d1e70ea910dbf506a957ff5",
  "args": [
    "0x677ddbd918637E5F2c79e164D402454dE7dA8619"
  ],
  "solcInputHash": "2ca97e329a6a43c8b41836cde7a46ae4",
  "bytecode": "0x60a06040523480156200001157600080fd5b50604051620015ff380380620015ff833981810160405281019062000037919062000107565b6001600081905550600073ffffffffffffffffffffffffffffffffffffffff168173ffffffffffffffffffffffffffffffffffffffff161415620000b2576040517f08c379a0000000000000000000000000000000000000000000000000000000008152600401620000a9906200015a565b60405180910390fd5b8073ffffffffffffffffffffffffffffffffffffffff1660808173ffffffffffffffffffffffffffffffffffffffff1660601b815250505062000204565b6000815190506200010181620001ea565b92915050565b6000602082840312156200011a57600080fd5b60006200012a84828501620000f0565b91505092915050565b6000620001426014836200017c565b91506200014f82620001c1565b602082019050919050565b60006020820190508181036000830152620001758162000133565b9050919050565b600082825260208201905092915050565b60006200019a82620001a1565b9050919050565b600073ffffffffffffffffffffffffffffffffffffffff82169050919050565b7f767573642d616464726573732d69732d7a65726f000000000000000000000000600082015250565b620001f5816200018d565b81146200020157600080fd5b50565b60805160601c6113c76200023860003960008181610243015281816104590152818161068e015261084c01526113c76000f3fe608060405234801561001057600080fd5b50600436106100b45760003560e01c806367627b621161007157806367627b621461017b578063965fa21e146101ab578063a3f4df7e146101c9578063edac5203146101e7578063fb00d51414610205578063ffa1ad7414610221576100b4565b80630c340a24146100b95780631e9a6950146100d757806326ac1d56146100f3578063484267a4146101115780635c833bfd1461014157806361d027b31461015d575b600080fd5b6100c161023f565b6040516100ce9190610d78565b60405180910390f35b6100f160048036038101906100ec9190610b2e565b6102e4565b005b6100fb610350565b6040516101089190610eb0565b60405180910390f35b61012b60048036038101906101269190610adc565b610356565b6040516101389190610eb0565b60405180910390f35b61015b60048036038101906101569190610b6a565b6103ef565b005b610165610455565b6040516101729190610d78565b60405180910390f35b61019560048036038101906101909190610b2e565b6104fa565b6040516101a29190610eb0565b60405180910390f35b6101b361064d565b6040516101c09190610eb0565b60405180910390f35b6101d1610653565b6040516101de9190610e0e565b60405180910390f35b6101ef61068c565b6040516101fc9190610df3565b60405180910390f35b61021f600480360381019061021a9190610c0b565b6106b0565b005b6102296107fb565b6040516102369190610e0e565b60405180910390f35b60007f000000000000000000000000000000000000000000000000000000000000000073ffffffffffffffffffffffffffffffffffffffff16630c340a246040518163ffffffff1660e01b815260040160206040518083038186803b1580156102a757600080fd5b505afa1580156102bb573d6000803e3d6000fd5b505050506040513d601f19601f820116820180604052508101906102df9190610b05565b905090565b6002600054141561032a576040517f08c379a000000000000000000000000000000000000000000000000000000000815260040161032190610e70565b60405180910390fd5b6002600081905550610344828261033f610834565b61083c565b60016000819055505050565b61271081565b6000610360610455565b73ffffffffffffffffffffffffffffffffffffffff1663ce513b6f836040518263ffffffff1660e01b81526004016103989190610d78565b60206040518083038186803b1580156103b057600080fd5b505afa1580156103c4573d6000803e3d6000fd5b505050506040513d601f19601f820116820180604052508101906103e89190610c34565b9050919050565b60026000541415610435576040517f08c379a000000000000000000000000000000000000000000000000000000000815260040161042c90610e70565b60405180910390fd5b600260008190555061044883838361083c565b6001600081905550505050565b60007f000000000000000000000000000000000000000000000000000000000000000073ffffffffffffffffffffffffffffffffffffffff166361d027b36040518163ffffffff1660e01b815260040160206040518083038186803b1580156104bd57600080fd5b505afa1580156104d1573d6000803e3d6000fd5b505050506040513d601f19601f820116820180604052508101906104f59190610b05565b905090565b600080610505610455565b90508073ffffffffffffffffffffffffffffffffffffffff16635e1762a06040518163ffffffff1660e01b815260040160206040518083038186803b15801561054d57600080fd5b505afa158015610561573d6000803e3d6000fd5b505050506040513d601f19601f820116820180604052508101906105859190610be2565b73ffffffffffffffffffffffffffffffffffffffff16635dbe47e8856040518263ffffffff1660e01b81526004016105bd9190610d78565b60206040518083038186803b1580156105d557600080fd5b505afa1580156105e9573d6000803e3d6000fd5b505050506040513d601f19601f8201168201806040525081019061060d9190610bb9565b1561064157600061061e858561095a565b905061062985610356565b81116106355780610638565b60005b92505050610647565b60009150505b92915050565b60015481565b6040518060400160405280600d81526020017f565553442d52656465656d65720000000000000000000000000000000000000081525081565b7f000000000000000000000000000000000000000000000000000000000000000081565b6106b861023f565b73ffffffffffffffffffffffffffffffffffffffff166106d6610834565b73ffffffffffffffffffffffffffffffffffffffff161461072c576040517f08c379a000000000000000000000000000000000000000000000000000000000815260040161072390610e30565b60405180910390fd5b612710811115610771576040517f08c379a000000000000000000000000000000000000000000000000000000000815260040161076890610e90565b60405180910390fd5b8060015414156107b6576040517f08c379a00000000000000000000000000000000000000000000000000000000081526004016107ad90610e50565b60405180910390fd5b7f78f68725a1b1a56a998dd7a8d279eb9bfbd45bc0fcee78f408200737275873e5600154826040516107e9929190610ecb565b60405180910390a18060018190555050565b6040518060400160405280600581526020017f312e312e3000000000000000000000000000000000000000000000000000000081525081565b600033905090565b6000610848848461095a565b90507f000000000000000000000000000000000000000000000000000000000000000073ffffffffffffffffffffffffffffffffffffffff166379cc679061088e610834565b856040518363ffffffff1660e01b81526004016108ac929190610d93565b600060405180830381600087803b1580156108c657600080fd5b505af11580156108da573d6000803e3d6000fd5b505050506108e6610455565b73ffffffffffffffffffffffffffffffffffffffff166369328dec8583856040518463ffffffff1660e01b815260040161092293929190610dbc565b600060405180830381600087803b15801561093c57600080fd5b505af1158015610950573d6000803e3d6000fd5b5050505050505050565b6000808373ffffffffffffffffffffffffffffffffffffffff1663313ce5676040518163ffffffff1660e01b815260040160206040518083038186803b1580156109a357600080fd5b505afa1580156109b7573d6000803e3d6000fd5b505050506040513d601f19601f820116820180604052508101906109db9190610c5d565b60ff16905060008060015414156109f25783610a19565b61271060015485610a0391906110b2565b610a0d9190610f10565b84610a18919061110c565b5b9050816012610a28919061110c565b600a610a349190610f94565b81610a3f9190610f10565b9250505092915050565b600081359050610a588161131e565b92915050565b600081519050610a6d8161131e565b92915050565b600081519050610a8281611335565b92915050565b600081519050610a978161134c565b92915050565b600081359050610aac81611363565b92915050565b600081519050610ac181611363565b92915050565b600081519050610ad68161137a565b92915050565b600060208284031215610aee57600080fd5b6000610afc84828501610a49565b91505092915050565b600060208284031215610b1757600080fd5b6000610b2584828501610a5e565b91505092915050565b60008060408385031215610b4157600080fd5b6000610b4f85828601610a49565b9250506020610b6085828601610a9d565b9150509250929050565b600080600060608486031215610b7f57600080fd5b6000610b8d86828701610a49565b9350506020610b9e86828701610a9d565b9250506040610baf86828701610a49565b9150509250925092565b600060208284031215610bcb57600080fd5b6000610bd984828501610a73565b91505092915050565b600060208284031215610bf457600080fd5b6000610c0284828501610a88565b91505092915050565b600060208284031215610c1d57600080fd5b6000610c2b84828501610a9d565b91505092915050565b600060208284031215610c4657600080fd5b6000610c5484828501610ab2565b91505092915050565b600060208284031215610c6f57600080fd5b6000610c7d84828501610ac7565b91505092915050565b610c8f81611140565b82525050565b610c9e816111a7565b82525050565b6000610caf82610ef4565b610cb98185610eff565b9350610cc98185602086016111cb565b610cd28161125c565b840191505092915050565b6000610cea601a83610eff565b9150610cf58261127a565b602082019050919050565b6000610d0d600f83610eff565b9150610d18826112a3565b602082019050919050565b6000610d30601f83610eff565b9150610d3b826112cc565b602082019050919050565b6000610d53601883610eff565b9150610d5e826112f5565b602082019050919050565b610d7281611190565b82525050565b6000602082019050610d8d6000830184610c86565b92915050565b6000604082019050610da86000830185610c86565b610db56020830184610d69565b9392505050565b6000606082019050610dd16000830186610c86565b610dde6020830185610d69565b610deb6040830184610c86565b949350505050565b6000602082019050610e086000830184610c95565b92915050565b60006020820190508181036000830152610e288184610ca4565b905092915050565b60006020820190508181036000830152610e4981610cdd565b9050919050565b60006020820190508181036000830152610e6981610d00565b9050919050565b60006020820190508181036000830152610e8981610d23565b9050919050565b60006020820190508181036000830152610ea981610d46565b9050919050565b6000602082019050610ec56000830184610d69565b92915050565b6000604082019050610ee06000830185610d69565b610eed6020830184610d69565b9392505050565b600081519050919050565b600082825260208201905092915050565b6000610f1b82611190565b9150610f2683611190565b925082610f3657610f3561122d565b5b828204905092915050565b6000808291508390505b6001851115610f8b57808604811115610f6757610f666111fe565b5b6001851615610f765780820291505b8081029050610f848561126d565b9450610f4b565b94509492505050565b6000610f9f82611190565b9150610faa83611190565b9250610fd77fffffffffffffffffffffffffffffffffffffffffffffffffffffffffffffffff8484610fdf565b905092915050565b600082610fef57600190506110ab565b81610ffd57600090506110ab565b8160018114611013576002811461101d5761104c565b60019150506110ab565b60ff84111561102f5761102e6111fe565b5b8360020a915084821115611046576110456111fe565b5b506110ab565b5060208310610133831016604e8410600b84101617156110815782820a90508381111561107c5761107b6111fe565b5b6110ab565b61108e8484846001610f41565b925090508184048111156110a5576110a46111fe565b5b81810290505b9392505050565b60006110bd82611190565b91506110c883611190565b9250817fffffffffffffffffffffffffffffffffffffffffffffffffffffffffffffffff0483118215151615611101576111006111fe565b5b828202905092915050565b600061111782611190565b915061112283611190565b925082821015611135576111346111fe565b5b828203905092915050565b600061114b82611170565b9050919050565b60008115159050919050565b600061116982611140565b9050919050565b600073ffffffffffffffffffffffffffffffffffffffff82169050919050565b6000819050919050565b600060ff82169050919050565b60006111b2826111b9565b9050919050565b60006111c482611170565b9050919050565b60005b838110156111e95780820151818401526020810190506111ce565b838111156111f8576000848401525b50505050565b7f4e487b7100000000000000000000000000000000000000000000000000000000600052601160045260246000fd5b7f4e487b7100000000000000000000000000000000000000000000000000000000600052601260045260246000fd5b6000601f19601f8301169050919050565b60008160011c9050919050565b7f63616c6c65722d69732d6e6f742d7468652d676f7665726e6f72000000000000600082015250565b7f73616d652d72656465656d2d6665650000000000000000000000000000000000600082015250565b7f5265656e7472616e637947756172643a207265656e7472616e742063616c6c00600082015250565b7f72656465656d2d6665652d6c696d69742d726561636865640000000000000000600082015250565b61132781611140565b811461133257600080fd5b50565b61133e81611152565b811461134957600080fd5b50565b6113558161115e565b811461136057600080fd5b50565b61136c81611190565b811461137757600080fd5b50565b6113838161119a565b811461138e57600080fd5b5056fea2646970667358221220f8a8c9663870f3cb060161b18987eba22ede0e7e6f77bc687ddc39d4eb3c8e9464736f6c63430008030033",
  "devdoc": {
    "kind": "dev",
    "methods": {
      "governor()": {
        "details": "Governor is defined in VUSD token contract only"
      },
      "redeem(address,uint256)": {
        "params": {
          "_token": "Token to redeem, it should be 1 of the supported tokens from treasury.",
          "_vusdAmount": "VUSD amount to burn"
        }
      },
      "redeem(address,uint256,address)": {
        "params": {
          "_token": "Token to redeem, it should be 1 of the supported tokens from treasury.",
          "_tokenReceiver": "Address of token receiver",
          "_vusdAmount": "VUSD amount to burn. VUSD will be burnt from caller"
        }
      },
      "redeemable(address)": {
        "details": "Current redeemable amount for given token"
      },
      "redeemable(address,uint256)": {
        "params": {
          "_token": "Token to redeem",
          "_vusdAmount": "VUSD amount to burn"
        }
      },
      "treasury()": {
        "details": "Treasury is defined in VUSD token contract only"
      }
    },
    "title": "VUSD Redeemer, User can redeem their VUSD with any supported tokens",
    "version": 1
  },
  "userdoc": {
    "kind": "user",
    "methods": {
      "redeem(address,uint256)": {
        "notice": "Redeem token and burn VUSD amount less redeem fee, if any."
      },
      "redeem(address,uint256,address)": {
        "notice": "Redeem token and burn VUSD amount less redeem fee, if any."
      },
      "redeemable(address,uint256)": {
        "notice": "Current redeemable amount for given token and vusdAmount. If token is not supported by treasury it will return 0. If vusdAmount is higher than current total redeemable of token it will return 0."
      },
      "updateRedeemFee(uint256)": {
        "notice": "Update redeem fee"
      }
    },
    "version": 1
  },
  "storageLayout": {
    "storage": [
      {
        "astId": 10,
        "contract": "contracts/Redeemer.sol:Redeemer",
        "label": "_status",
        "offset": 0,
        "slot": "0",
        "type": "t_uint256"
      },
      {
        "astId": 2396,
        "contract": "contracts/Redeemer.sol:Redeemer",
        "label": "redeemFee",
        "offset": 0,
        "slot": "1",
        "type": "t_uint256"
      }
    ],
    "types": {
      "t_uint256": {
        "encoding": "inplace",
        "label": "uint256",
        "numberOfBytes": "32"
      }
    }
  }
}