{
  "address": "0x0e2Ba4DF2aB32fcc0a6975093e040568b37FAf49",
  "abi": [
    {
      "inputs": [
        {
          "internalType": "address",
          "name": "_vusd",
          "type": "address"
        }
      ],
      "stateMutability": "nonpayable",
      "type": "constructor"
    },
    {
      "anonymous": false,
      "inputs": [
        {
          "indexed": true,
          "internalType": "address",
          "name": "previousRedeemer",
          "type": "address"
        },
        {
          "indexed": true,
          "internalType": "address",
          "name": "newRedeemer",
          "type": "address"
        }
      ],
      "name": "UpdatedRedeemer",
      "type": "event"
    },
    {
      "inputs": [],
      "name": "NAME",
      "outputs": [
        {
          "internalType": "string",
          "name": "",
          "type": "string"
        }
      ],
      "stateMutability": "view",
      "type": "function"
    },
    {
      "inputs": [],
      "name": "VERSION",
      "outputs": [
        {
          "internalType": "string",
          "name": "",
          "type": "string"
        }
      ],
      "stateMutability": "view",
      "type": "function"
    },
    {
      "inputs": [
        {
          "internalType": "address",
          "name": "_token",
          "type": "address"
        },
        {
          "internalType": "address",
          "name": "_cToken",
          "type": "address"
        }
      ],
      "name": "addWhitelistedToken",
      "outputs": [],
      "stateMutability": "nonpayable",
      "type": "function"
    },
    {
      "inputs": [
        {
          "internalType": "address",
          "name": "",
          "type": "address"
        }
      ],
      "name": "cTokens",
      "outputs": [
        {
          "internalType": "address",
          "name": "",
          "type": "address"
        }
      ],
      "stateMutability": "view",
      "type": "function"
    },
    {
      "inputs": [],
      "name": "governor",
      "outputs": [
        {
          "internalType": "address",
          "name": "",
          "type": "address"
        }
      ],
      "stateMutability": "view",
      "type": "function"
    },
    {
      "inputs": [],
      "name": "redeemer",
      "outputs": [
        {
          "internalType": "address",
          "name": "",
          "type": "address"
        }
      ],
      "stateMutability": "view",
      "type": "function"
    },
    {
      "inputs": [
        {
          "internalType": "address",
          "name": "_token",
          "type": "address"
        }
      ],
      "name": "removeWhitelistedToken",
      "outputs": [],
      "stateMutability": "nonpayable",
      "type": "function"
    },
    {
      "inputs": [
        {
          "internalType": "address",
          "name": "_newRedeemer",
          "type": "address"
        }
      ],
      "name": "updateRedeemer",
      "outputs": [],
      "stateMutability": "nonpayable",
      "type": "function"
    },
    {
      "inputs": [],
      "name": "vusd",
      "outputs": [
        {
          "internalType": "contract IVUSD",
          "name": "",
          "type": "address"
        }
      ],
      "stateMutability": "view",
      "type": "function"
    },
    {
      "inputs": [],
      "name": "whitelistedTokens",
      "outputs": [
        {
          "internalType": "contract IAddressList",
          "name": "",
          "type": "address"
        }
      ],
      "stateMutability": "view",
      "type": "function"
    },
    {
      "inputs": [
        {
          "internalType": "address",
          "name": "_token",
          "type": "address"
        },
        {
          "internalType": "uint256",
          "name": "_amount",
          "type": "uint256"
        },
        {
          "internalType": "address",
          "name": "_tokenReceiver",
          "type": "address"
        }
      ],
      "name": "withdraw",
      "outputs": [],
      "stateMutability": "nonpayable",
      "type": "function"
    },
    {
      "inputs": [
        {
          "internalType": "address",
          "name": "_token",
          "type": "address"
        },
        {
          "internalType": "uint256",
          "name": "_amount",
          "type": "uint256"
        }
      ],
      "name": "withdraw",
      "outputs": [],
      "stateMutability": "nonpayable",
      "type": "function"
    },
    {
      "inputs": [
        {
          "internalType": "address[]",
          "name": "_tokens",
          "type": "address[]"
        }
      ],
      "name": "withdrawAll",
      "outputs": [],
      "stateMutability": "nonpayable",
      "type": "function"
    },
    {
      "inputs": [
        {
          "internalType": "address[]",
          "name": "_tokens",
          "type": "address[]"
        },
        {
          "internalType": "uint256[]",
          "name": "_amounts",
          "type": "uint256[]"
        }
      ],
      "name": "withdrawMulti",
      "outputs": [],
      "stateMutability": "nonpayable",
      "type": "function"
    },
    {
      "inputs": [
        {
          "internalType": "address",
          "name": "_token",
          "type": "address"
        }
      ],
      "name": "withdrawable",
      "outputs": [
        {
          "internalType": "uint256",
          "name": "",
          "type": "uint256"
        }
      ],
      "stateMutability": "view",
      "type": "function"
    }
  ],
  "transactionHash": "0x97178eed47459f524a602d659408b4b3ed75751a92ba7a8d07efee52e6af3fcd",
  "args": [
    "0x677ddbd918637E5F2c79e164D402454dE7dA8619"
  ],
  "solcInputHash": "2ca97e329a6a43c8b41836cde7a46ae4",
  "bytecode": "0x60c06040523480156200001157600080fd5b5060405162003276380380620032768339818101604052810190620000379190620003ff565b6001600081905550600073ffffffffffffffffffffffffffffffffffffffff168173ffffffffffffffffffffffffffffffffffffffff161415620000b2576040517f08c379a0000000000000000000000000000000000000000000000000000000008152600401620000a990620004d3565b60405180910390fd5b8073ffffffffffffffffffffffffffffffffffffffff1660a08173ffffffffffffffffffffffffffffffffffffffff1660601b81525050600073ded8217de022706a191ee7ee0dc9df1185fb5da3905060008173ffffffffffffffffffffffffffffffffffffffff16630fab4d256040518163ffffffff1660e01b8152600401602060405180830381600087803b1580156200014d57600080fd5b505af115801562000162573d6000803e3d6000fd5b505050506040513d601f19601f82011682018060405250810190620001889190620003ff565b9050620001c581736b175474e89094c44da98b954eedeac495271d0f735d3a536e4d6dbd6114cc1ead35777bab948e36436200027b60201b60201c565b620002008173a0b86991c6218b36c1d19d4a2e9eb0ce3606eb487339aa39c021dfbae8fac545936693ac917d5e75636200027b60201b60201c565b6200023b8173dac17f958d2ee523a2206206994597c13d831ec773f650c3d88d12db855b8bf7d11be6c55a4e07dcc96200027b60201b60201c565b8073ffffffffffffffffffffffffffffffffffffffff1660808173ffffffffffffffffffffffffffffffffffffffff1660601b81525050505050620005ee565b8273ffffffffffffffffffffffffffffffffffffffff16630a3b0a4f836040518263ffffffff1660e01b8152600401620002b69190620004b6565b602060405180830381600087803b158015620002d157600080fd5b505af1158015620002e6573d6000803e3d6000fd5b505050506040513d601f19601f820116820180604052508101906200030c91906200042b565b6200034e576040517f08c379a00000000000000000000000000000000000000000000000000000000081526004016200034590620004f5565b60405180910390fd5b80600260008473ffffffffffffffffffffffffffffffffffffffff1673ffffffffffffffffffffffffffffffffffffffff16815260200190815260200160002060006101000a81548173ffffffffffffffffffffffffffffffffffffffff021916908373ffffffffffffffffffffffffffffffffffffffff160217905550505050565b600081519050620003e281620005ba565b92915050565b600081519050620003f981620005d4565b92915050565b6000602082840312156200041257600080fd5b60006200042284828501620003d1565b91505092915050565b6000602082840312156200043e57600080fd5b60006200044e84828501620003e8565b91505092915050565b620004628162000528565b82525050565b60006200047760148362000517565b9150620004848262000568565b602082019050919050565b60006200049e60128362000517565b9150620004ab8262000591565b602082019050919050565b6000602082019050620004cd600083018462000457565b92915050565b60006020820190508181036000830152620004ee8162000468565b9050919050565b6000602082019050818103600083015262000510816200048f565b9050919050565b600082825260208201905092915050565b6000620005358262000548565b9050919050565b60008115159050919050565b600073ffffffffffffffffffffffffffffffffffffffff82169050919050565b7f767573642d616464726573732d69732d7a65726f000000000000000000000000600082015250565b7f6164642d696e2d6c6973742d6661696c65640000000000000000000000000000600082015250565b620005c58162000528565b8114620005d157600080fd5b50565b620005df816200053c565b8114620005eb57600080fd5b50565b60805160601c60a05160601c612c396200063d60003960008181610461015261144e01526000818161043301528181610580015281816108c1015281816109bb01526117470152612c396000f3fe608060405234801561001057600080fd5b50600436106100f55760003560e01c806369328dec11610097578063ce513b6f11610066578063ce513b6f1461024a578063edac52031461027a578063f3fef3a314610298578063ffa1ad74146102b4576100f5565b806369328dec146101c45780637d138e13146101e05780638c0b09d0146101fc578063a3f4df7e1461022c576100f5565b80632ba29d38116100d35780632ba29d3814610150578063428415311461016e5780635e1762a01461018a5780636568a279146101a8576100f5565b806301ac8559146100fa5780630c340a24146101165780631c88705d14610134575b600080fd5b610114600480360381019061010f9190611e63565b6102d2565b005b61011e61045d565b60405161012b9190612316565b60405180910390f35b61014e60048036038101906101499190611e11565b610502565b005b6101586106cd565b6040516101659190612316565b60405180910390f35b61018860048036038101906101839190611f6b565b6106f3565b005b6101926108bf565b60405161019f919061235a565b60405180910390f35b6101c260048036038101906101bd9190611f2a565b6108e3565b005b6101de60048036038101906101d99190611edb565b610e34565b005b6101fa60048036038101906101f59190611e11565b610f75565b005b61021660048036038101906102119190611e11565b6111b2565b6040516102239190612316565b60405180910390f35b6102346111e5565b6040516102419190612390565b60405180910390f35b610264600480360381019061025f9190611e11565b61121e565b60405161027191906125b2565b60405180910390f35b61028261144c565b60405161028f9190612375565b60405180910390f35b6102b260048036038101906102ad9190611e9f565b611470565b005b6102bc6115b7565b6040516102c99190612390565b60405180910390f35b6102da61045d565b73ffffffffffffffffffffffffffffffffffffffff166102f86115f0565b73ffffffffffffffffffffffffffffffffffffffff161461034e576040517f08c379a000000000000000000000000000000000000000000000000000000000815260040161034590612432565b60405180910390fd5b600073ffffffffffffffffffffffffffffffffffffffff168273ffffffffffffffffffffffffffffffffffffffff1614156103be576040517f08c379a00000000000000000000000000000000000000000000000000000000081526004016103b590612452565b60405180910390fd5b600073ffffffffffffffffffffffffffffffffffffffff168173ffffffffffffffffffffffffffffffffffffffff16141561042e576040517f08c379a0000000000000000000000000000000000000000000000000000000008152600401610425906123b2565b60405180910390fd5b6104597f000000000000000000000000000000000000000000000000000000000000000083836115f8565b5050565b60007f000000000000000000000000000000000000000000000000000000000000000073ffffffffffffffffffffffffffffffffffffffff16630c340a246040518163ffffffff1660e01b815260040160206040518083038186803b1580156104c557600080fd5b505afa1580156104d9573d6000803e3d6000fd5b505050506040513d601f19601f820116820180604052508101906104fd9190611e3a565b905090565b61050a61045d565b73ffffffffffffffffffffffffffffffffffffffff166105286115f0565b73ffffffffffffffffffffffffffffffffffffffff161461057e576040517f08c379a000000000000000000000000000000000000000000000000000000000815260040161057590612432565b60405180910390fd5b7f000000000000000000000000000000000000000000000000000000000000000073ffffffffffffffffffffffffffffffffffffffff166329092d0e826040518263ffffffff1660e01b81526004016105d79190612316565b602060405180830381600087803b1580156105f157600080fd5b505af1158015610605573d6000803e3d6000fd5b505050506040513d601f19601f820116820180604052508101906106299190611fd7565b610668576040517f08c379a000000000000000000000000000000000000000000000000000000000815260040161065f906124d2565b60405180910390fd5b600260008273ffffffffffffffffffffffffffffffffffffffff1673ffffffffffffffffffffffffffffffffffffffff16815260200190815260200160002060006101000a81549073ffffffffffffffffffffffffffffffffffffffff021916905550565b600160009054906101000a900473ffffffffffffffffffffffffffffffffffffffff1681565b60026000541415610739576040517f08c379a000000000000000000000000000000000000000000000000000000000815260040161073090612572565b60405180910390fd5b600260008190555061074961045d565b73ffffffffffffffffffffffffffffffffffffffff166107676115f0565b73ffffffffffffffffffffffffffffffffffffffff16146107bd576040517f08c379a00000000000000000000000000000000000000000000000000000000081526004016107b490612432565b60405180910390fd5b8051825114610801576040517f08c379a00000000000000000000000000000000000000000000000000000000081526004016107f8906123d2565b60405180910390fd5b60005b82518110156108b25761089f838281518110610849577f4e487b7100000000000000000000000000000000000000000000000000000000600052603260045260246000fd5b602002602001015183838151811061088a577f4e487b7100000000000000000000000000000000000000000000000000000000600052603260045260246000fd5b602002602001015161089a6115f0565b611745565b80806108aa906127fb565b915050610804565b5060016000819055505050565b7f000000000000000000000000000000000000000000000000000000000000000081565b60026000541415610929576040517f08c379a000000000000000000000000000000000000000000000000000000000815260040161092090612572565b60405180910390fd5b600260008190555061093961045d565b73ffffffffffffffffffffffffffffffffffffffff166109576115f0565b73ffffffffffffffffffffffffffffffffffffffff16146109ad576040517f08c379a00000000000000000000000000000000000000000000000000000000081526004016109a490612432565b60405180910390fd5b60005b8151811015610e28577f000000000000000000000000000000000000000000000000000000000000000073ffffffffffffffffffffffffffffffffffffffff16635dbe47e8838381518110610a2e577f4e487b7100000000000000000000000000000000000000000000000000000000600052603260045260246000fd5b60200260200101516040518263ffffffff1660e01b8152600401610a529190612316565b60206040518083038186803b158015610a6a57600080fd5b505afa158015610a7e573d6000803e3d6000fd5b505050506040513d601f19601f82011682018060405250810190610aa29190611fd7565b610ae1576040517f08c379a0000000000000000000000000000000000000000000000000000000008152600401610ad890612472565b60405180910390fd5b600060026000848481518110610b20577f4e487b7100000000000000000000000000000000000000000000000000000000600052603260045260246000fd5b602002602001015173ffffffffffffffffffffffffffffffffffffffff1673ffffffffffffffffffffffffffffffffffffffff16815260200190815260200160002060009054906101000a900473ffffffffffffffffffffffffffffffffffffffff16905060008173ffffffffffffffffffffffffffffffffffffffff1663db006a758373ffffffffffffffffffffffffffffffffffffffff166370a08231306040518263ffffffff1660e01b8152600401610bdc9190612316565b60206040518083038186803b158015610bf457600080fd5b505afa158015610c08573d6000803e3d6000fd5b505050506040513d601f19601f82011682018060405250810190610c2c9190612000565b6040518263ffffffff1660e01b8152600401610c4891906125b2565b602060405180830381600087803b158015610c6257600080fd5b505af1158015610c76573d6000803e3d6000fd5b505050506040513d601f19601f82011682018060405250810190610c9a9190612000565b14610cda576040517f08c379a0000000000000000000000000000000000000000000000000000000008152600401610cd190612512565b60405180910390fd5b610e14610ce56115f0565b848481518110610d1e577f4e487b7100000000000000000000000000000000000000000000000000000000600052603260045260246000fd5b602002602001015173ffffffffffffffffffffffffffffffffffffffff166370a08231306040518263ffffffff1660e01b8152600401610d5e9190612316565b60206040518083038186803b158015610d7657600080fd5b505afa158015610d8a573d6000803e3d6000fd5b505050506040513d601f19601f82011682018060405250810190610dae9190612000565b858581518110610de7577f4e487b7100000000000000000000000000000000000000000000000000000000600052603260045260246000fd5b602002602001015173ffffffffffffffffffffffffffffffffffffffff166119899092919063ffffffff16565b508080610e20906127fb565b9150506109b0565b50600160008190555050565b60026000541415610e7a576040517f08c379a0000000000000000000000000000000000000000000000000000000008152600401610e7190612572565b60405180910390fd5b6002600081905550610e8a61045d565b73ffffffffffffffffffffffffffffffffffffffff16610ea86115f0565b73ffffffffffffffffffffffffffffffffffffffff161480610f1e5750600160009054906101000a900473ffffffffffffffffffffffffffffffffffffffff1673ffffffffffffffffffffffffffffffffffffffff16610f066115f0565b73ffffffffffffffffffffffffffffffffffffffff16145b610f5d576040517f08c379a0000000000000000000000000000000000000000000000000000000008152600401610f5490612592565b60405180910390fd5b610f68838383611745565b6001600081905550505050565b610f7d61045d565b73ffffffffffffffffffffffffffffffffffffffff16610f9b6115f0565b73ffffffffffffffffffffffffffffffffffffffff1614610ff1576040517f08c379a0000000000000000000000000000000000000000000000000000000008152600401610fe890612432565b60405180910390fd5b600073ffffffffffffffffffffffffffffffffffffffff168173ffffffffffffffffffffffffffffffffffffffff161415611061576040517f08c379a000000000000000000000000000000000000000000000000000000000815260040161105890612412565b60405180910390fd5b8073ffffffffffffffffffffffffffffffffffffffff16600160009054906101000a900473ffffffffffffffffffffffffffffffffffffffff1673ffffffffffffffffffffffffffffffffffffffff1614156110f2576040517f08c379a00000000000000000000000000000000000000000000000000000000081526004016110e9906124b2565b60405180910390fd5b8073ffffffffffffffffffffffffffffffffffffffff16600160009054906101000a900473ffffffffffffffffffffffffffffffffffffffff1673ffffffffffffffffffffffffffffffffffffffff167fbb0958cd5add04c553a378aa342c839507b619a0459617e004c5d13602cfa72360405160405180910390a380600160006101000a81548173ffffffffffffffffffffffffffffffffffffffff021916908373ffffffffffffffffffffffffffffffffffffffff16021790555050565b60026020528060005260406000206000915054906101000a900473ffffffffffffffffffffffffffffffffffffffff1681565b6040518060400160405280600d81526020017f565553442d54726561737572790000000000000000000000000000000000000081525081565b60008073ffffffffffffffffffffffffffffffffffffffff16600260008473ffffffffffffffffffffffffffffffffffffffff1673ffffffffffffffffffffffffffffffffffffffff16815260200190815260200160002060009054906101000a900473ffffffffffffffffffffffffffffffffffffffff1673ffffffffffffffffffffffffffffffffffffffff1614611442576000600260008473ffffffffffffffffffffffffffffffffffffffff1673ffffffffffffffffffffffffffffffffffffffff16815260200190815260200160002060009054906101000a900473ffffffffffffffffffffffffffffffffffffffff169050670de0b6b3a76400008173ffffffffffffffffffffffffffffffffffffffff1663182df0f56040518163ffffffff1660e01b815260040160206040518083038186803b15801561136557600080fd5b505afa158015611379573d6000803e3d6000fd5b505050506040513d601f19601f8201168201806040525081019061139d9190612000565b8273ffffffffffffffffffffffffffffffffffffffff166370a08231306040518263ffffffff1660e01b81526004016113d69190612316565b60206040518083038186803b1580156113ee57600080fd5b505afa158015611402573d6000803e3d6000fd5b505050506040513d601f19601f820116820180604052508101906114269190612000565b61143091906126ad565b61143a919061267c565b915050611447565b600090505b919050565b7f000000000000000000000000000000000000000000000000000000000000000081565b600260005414156114b6576040517f08c379a00000000000000000000000000000000000000000000000000000000081526004016114ad90612572565b60405180910390fd5b60026000819055506114c661045d565b73ffffffffffffffffffffffffffffffffffffffff166114e46115f0565b73ffffffffffffffffffffffffffffffffffffffff16148061155a5750600160009054906101000a900473ffffffffffffffffffffffffffffffffffffffff1673ffffffffffffffffffffffffffffffffffffffff166115426115f0565b73ffffffffffffffffffffffffffffffffffffffff16145b611599576040517f08c379a000000000000000000000000000000000000000000000000000000000815260040161159090612592565b60405180910390fd5b6115ab82826115a66115f0565b611745565b60016000819055505050565b6040518060400160405280600581526020017f312e312e3000000000000000000000000000000000000000000000000000000081525081565b600033905090565b8273ffffffffffffffffffffffffffffffffffffffff16630a3b0a4f836040518263ffffffff1660e01b81526004016116319190612316565b602060405180830381600087803b15801561164b57600080fd5b505af115801561165f573d6000803e3d6000fd5b505050506040513d601f19601f820116820180604052508101906116839190611fd7565b6116c2576040517f08c379a00000000000000000000000000000000000000000000000000000000081526004016116b990612492565b60405180910390fd5b80600260008473ffffffffffffffffffffffffffffffffffffffff1673ffffffffffffffffffffffffffffffffffffffff16815260200190815260200160002060006101000a81548173ffffffffffffffffffffffffffffffffffffffff021916908373ffffffffffffffffffffffffffffffffffffffff160217905550505050565b7f000000000000000000000000000000000000000000000000000000000000000073ffffffffffffffffffffffffffffffffffffffff16635dbe47e8846040518263ffffffff1660e01b815260040161179e9190612316565b60206040518083038186803b1580156117b657600080fd5b505afa1580156117ca573d6000803e3d6000fd5b505050506040513d601f19601f820116820180604052508101906117ee9190611fd7565b61182d576040517f08c379a000000000000000000000000000000000000000000000000000000000815260040161182490612472565b60405180910390fd5b6000600260008573ffffffffffffffffffffffffffffffffffffffff1673ffffffffffffffffffffffffffffffffffffffff16815260200190815260200160002060009054906101000a900473ffffffffffffffffffffffffffffffffffffffff1673ffffffffffffffffffffffffffffffffffffffff1663852a12e3846040518263ffffffff1660e01b81526004016118c791906125b2565b602060405180830381600087803b1580156118e157600080fd5b505af11580156118f5573d6000803e3d6000fd5b505050506040513d601f19601f820116820180604052508101906119199190612000565b14611959576040517f08c379a0000000000000000000000000000000000000000000000000000000008152600401611950906124f2565b60405180910390fd5b61198481838573ffffffffffffffffffffffffffffffffffffffff166119899092919063ffffffff16565b505050565b611a0a8363a9059cbb60e01b84846040516024016119a8929190612331565b604051602081830303815290604052907bffffffffffffffffffffffffffffffffffffffffffffffffffffffff19166020820180517bffffffffffffffffffffffffffffffffffffffffffffffffffffffff8381831617835250505050611a0f565b505050565b6000611a71826040518060400160405280602081526020017f5361666545524332303a206c6f772d6c6576656c2063616c6c206661696c65648152508573ffffffffffffffffffffffffffffffffffffffff16611ad69092919063ffffffff16565b9050600081511115611ad15780806020019051810190611a919190611fd7565b611ad0576040517f08c379a0000000000000000000000000000000000000000000000000000000008152600401611ac790612552565b60405180910390fd5b5b505050565b6060611ae58484600085611aee565b90509392505050565b606082471015611b33576040517f08c379a0000000000000000000000000000000000000000000000000000000008152600401611b2a906123f2565b60405180910390fd5b611b3c85611c02565b611b7b576040517f08c379a0000000000000000000000000000000000000000000000000000000008152600401611b7290612532565b60405180910390fd5b6000808673ffffffffffffffffffffffffffffffffffffffff168587604051611ba491906122ff565b60006040518083038185875af1925050503d8060008114611be1576040519150601f19603f3d011682016040523d82523d6000602084013e611be6565b606091505b5091509150611bf6828286611c15565b92505050949350505050565b600080823b905060008111915050919050565b60608315611c2557829050611c75565b600083511115611c385782518084602001fd5b816040517f08c379a0000000000000000000000000000000000000000000000000000000008152600401611c6c9190612390565b60405180910390fd5b9392505050565b6000611c8f611c8a846125f2565b6125cd565b90508083825260208201905082856020860282011115611cae57600080fd5b60005b85811015611cde5781611cc48882611d54565b845260208401935060208301925050600181019050611cb1565b5050509392505050565b6000611cfb611cf68461261e565b6125cd565b90508083825260208201905082856020860282011115611d1a57600080fd5b60005b85811015611d4a5781611d308882611de7565b845260208401935060208301925050600181019050611d1d565b5050509392505050565b600081359050611d6381612bbe565b92915050565b600081519050611d7881612bbe565b92915050565b600082601f830112611d8f57600080fd5b8135611d9f848260208601611c7c565b91505092915050565b600082601f830112611db957600080fd5b8135611dc9848260208601611ce8565b91505092915050565b600081519050611de181612bd5565b92915050565b600081359050611df681612bec565b92915050565b600081519050611e0b81612bec565b92915050565b600060208284031215611e2357600080fd5b6000611e3184828501611d54565b91505092915050565b600060208284031215611e4c57600080fd5b6000611e5a84828501611d69565b91505092915050565b60008060408385031215611e7657600080fd5b6000611e8485828601611d54565b9250506020611e9585828601611d54565b9150509250929050565b60008060408385031215611eb257600080fd5b6000611ec085828601611d54565b9250506020611ed185828601611de7565b9150509250929050565b600080600060608486031215611ef057600080fd5b6000611efe86828701611d54565b9350506020611f0f86828701611de7565b9250506040611f2086828701611d54565b9150509250925092565b600060208284031215611f3c57600080fd5b600082013567ffffffffffffffff811115611f5657600080fd5b611f6284828501611d7e565b91505092915050565b60008060408385031215611f7e57600080fd5b600083013567ffffffffffffffff811115611f9857600080fd5b611fa485828601611d7e565b925050602083013567ffffffffffffffff811115611fc157600080fd5b611fcd85828601611da8565b9150509250929050565b600060208284031215611fe957600080fd5b6000611ff784828501611dd2565b91505092915050565b60006020828403121561201257600080fd5b600061202084828501611dfc565b91505092915050565b61203281612707565b82525050565b60006120438261264a565b61204d8185612660565b935061205d818560208601612797565b80840191505092915050565b6120728161274f565b82525050565b61208181612773565b82525050565b600061209282612655565b61209c818561266b565b93506120ac818560208601612797565b6120b5816128d1565b840191505092915050565b60006120cd60168361266b565b91506120d8826128e2565b602082019050919050565b60006120f060158361266b565b91506120fb8261290b565b602082019050919050565b600061211360268361266b565b915061211e82612934565b604082019050919050565b600061213660188361266b565b915061214182612983565b602082019050919050565b6000612159601a8361266b565b9150612164826129ac565b602082019050919050565b600061217c60158361266b565b9150612187826129d5565b602082019050919050565b600061219f60168361266b565b91506121aa826129fe565b602082019050919050565b60006121c260128361266b565b91506121cd82612a27565b602082019050919050565b60006121e5600d8361266b565b91506121f082612a50565b602082019050919050565b600061220860178361266b565b915061221382612a79565b602082019050919050565b600061222b60188361266b565b915061223682612aa2565b602082019050919050565b600061224e600d8361266b565b915061225982612acb565b602082019050919050565b6000612271601d8361266b565b915061227c82612af4565b602082019050919050565b6000612294602a8361266b565b915061229f82612b1d565b604082019050919050565b60006122b7601f8361266b565b91506122c282612b6c565b602082019050919050565b60006122da60188361266b565b91506122e582612b95565b602082019050919050565b6122f981612745565b82525050565b600061230b8284612038565b915081905092915050565b600060208201905061232b6000830184612029565b92915050565b60006040820190506123466000830185612029565b61235360208301846122f0565b9392505050565b600060208201905061236f6000830184612069565b92915050565b600060208201905061238a6000830184612078565b92915050565b600060208201905081810360008301526123aa8184612087565b905092915050565b600060208201905081810360008301526123cb816120c0565b9050919050565b600060208201905081810360008301526123eb816120e3565b9050919050565b6000602082019050818103600083015261240b81612106565b9050919050565b6000602082019050818103600083015261242b81612129565b9050919050565b6000602082019050818103600083015261244b8161214c565b9050919050565b6000602082019050818103600083015261246b8161216f565b9050919050565b6000602082019050818103600083015261248b81612192565b9050919050565b600060208201905081810360008301526124ab816121b5565b9050919050565b600060208201905081810360008301526124cb816121d8565b9050919050565b600060208201905081810360008301526124eb816121fb565b9050919050565b6000602082019050818103600083015261250b8161221e565b9050919050565b6000602082019050818103600083015261252b81612241565b9050919050565b6000602082019050818103600083015261254b81612264565b9050919050565b6000602082019050818103600083015261256b81612287565b9050919050565b6000602082019050818103600083015261258b816122aa565b9050919050565b600060208201905081810360008301526125ab816122cd565b9050919050565b60006020820190506125c760008301846122f0565b92915050565b60006125d76125e8565b90506125e382826127ca565b919050565b6000604051905090565b600067ffffffffffffffff82111561260d5761260c6128a2565b5b602082029050602081019050919050565b600067ffffffffffffffff821115612639576126386128a2565b5b602082029050602081019050919050565b600081519050919050565b600081519050919050565b600081905092915050565b600082825260208201905092915050565b600061268782612745565b915061269283612745565b9250826126a2576126a1612873565b5b828204905092915050565b60006126b882612745565b91506126c383612745565b9250817fffffffffffffffffffffffffffffffffffffffffffffffffffffffffffffffff04831182151516156126fc576126fb612844565b5b828202905092915050565b600061271282612725565b9050919050565b60008115159050919050565b600073ffffffffffffffffffffffffffffffffffffffff82169050919050565b6000819050919050565b600061275a82612761565b9050919050565b600061276c82612725565b9050919050565b600061277e82612785565b9050919050565b600061279082612725565b9050919050565b60005b838110156127b557808201518184015260208101905061279a565b838111156127c4576000848401525b50505050565b6127d3826128d1565b810181811067ffffffffffffffff821117156127f2576127f16128a2565b5b80604052505050565b600061280682612745565b91507fffffffffffffffffffffffffffffffffffffffffffffffffffffffffffffffff82141561283957612838612844565b5b600182019050919050565b7f4e487b7100000000000000000000000000000000000000000000000000000000600052601160045260246000fd5b7f4e487b7100000000000000000000000000000000000000000000000000000000600052601260045260246000fd5b7f4e487b7100000000000000000000000000000000000000000000000000000000600052604160045260246000fd5b6000601f19601f8301169050919050565b7f63546f6b656e2d616464726573732d69732d7a65726f00000000000000000000600082015250565b7f696e7075742d6c656e6774682d6d69736d617463680000000000000000000000600082015250565b7f416464726573733a20696e73756666696369656e742062616c616e636520666f60008201527f722063616c6c0000000000000000000000000000000000000000000000000000602082015250565b7f72656465656d65722d616464726573732d69732d7a65726f0000000000000000600082015250565b7f63616c6c65722d69732d6e6f742d7468652d676f7665726e6f72000000000000600082015250565b7f746f6b656e2d616464726573732d69732d7a65726f0000000000000000000000600082015250565b7f746f6b656e2d69732d6e6f742d737570706f7274656400000000000000000000600082015250565b7f6164642d696e2d6c6973742d6661696c65640000000000000000000000000000600082015250565b7f73616d652d72656465656d657200000000000000000000000000000000000000600082015250565b7f72656d6f76652d66726f6d2d6c6973742d6661696c6564000000000000000000600082015250565b7f72656465656d2d756e6465726c79696e672d6661696c65640000000000000000600082015250565b7f72656465656d2d6661696c656400000000000000000000000000000000000000600082015250565b7f416464726573733a2063616c6c20746f206e6f6e2d636f6e7472616374000000600082015250565b7f5361666545524332303a204552433230206f7065726174696f6e20646964206e60008201527f6f74207375636365656400000000000000000000000000000000000000000000602082015250565b7f5265656e7472616e637947756172643a207265656e7472616e742063616c6c00600082015250565b7f63616c6c65722d69732d6e6f742d617574686f72697a65640000000000000000600082015250565b612bc781612707565b8114612bd257600080fd5b50565b612bde81612719565b8114612be957600080fd5b50565b612bf581612745565b8114612c0057600080fd5b5056fea2646970667358221220b1338aa67e2e247ee5aea6ece052b1fe268b888cbbf32228af07f3c6db04b4a764736f6c63430008030033",
  "devdoc": {
    "kind": "dev",
    "methods": {
      "addWhitelistedToken(address,address)": {
        "details": "Add token address in whitelistedTokens list and add cToken in mapping",
        "params": {
          "_cToken": "CToken address correspond to _token",
          "_token": "address which we want to add in token list."
        }
      },
      "governor()": {
        "details": "Governor is defined in VUSD token contract only"
      },
      "removeWhitelistedToken(address)": {
        "details": "Removing token even if treasury has some balance of that token is intended behavior.",
        "params": {
          "_token": "address which we want to remove from token list."
        }
      },
      "updateRedeemer(address)": {
        "params": {
          "_newRedeemer": "new redeemer address"
        }
      },
      "withdraw(address,uint256)": {
        "details": "Only Redeemer and Governor are allowed to call",
        "params": {
          "_amount": "token amount to withdraw",
          "_token": "Token to withdraw, it should be 1 of the supported tokens."
        }
      },
      "withdraw(address,uint256,address)": {
        "details": "Only Redeemer and Governor are allowed to call",
        "params": {
          "_amount": "token amount to withdraw",
          "_token": "Token to withdraw, it should be 1 of the supported tokens.",
          "_tokenReceiver": "Address of token receiver"
        }
      },
      "withdrawAll(address[])": {
        "details": "Only Governor is allowed to call.",
        "params": {
          "_tokens": "Array of token addresses, tokens should be supported tokens."
        }
      },
      "withdrawMulti(address[],uint256[])": {
        "details": "Only Governor is allowed to call._tokens and _amounts array are 1:1 and should have same length",
        "params": {
          "_amounts": "Array of token amount to withdraw",
          "_tokens": "Array of token addresses, tokens should be supported tokens."
        }
      },
      "withdrawable(address)": {
        "params": {
          "_token": "Token to withdraw"
        }
      }
    },
    "title": "VUSD Treasury, It stores cTokens and redeem those from Compound as needed.",
    "version": 1
  },
  "userdoc": {
    "kind": "user",
    "methods": {
      "addWhitelistedToken(address,address)": {
        "notice": "Add token into treasury management system"
      },
      "removeWhitelistedToken(address)": {
        "notice": "Remove token from treasury management system"
      },
      "updateRedeemer(address)": {
        "notice": "Update redeemer address"
      },
      "withdraw(address,uint256)": {
        "notice": "Withdraw given amount of token."
      },
      "withdraw(address,uint256,address)": {
        "notice": "Withdraw given amount of token."
      },
      "withdrawAll(address[])": {
        "notice": "Withdraw all of multiple tokens."
      },
      "withdrawMulti(address[],uint256[])": {
        "notice": "Withdraw multiple tokens."
      },
      "withdrawable(address)": {
        "notice": "Current withdrawable amount for given token. If token is not supported by treasury, no cTokens in mapping, it will return 0."
      }
    },
    "version": 1
  },
  "storageLayout": {
    "storage": [
      {
        "astId": 10,
        "contract": "contracts/Treasury.sol:Treasury",
        "label": "_status",
        "offset": 0,
        "slot": "0",
        "type": "t_uint256"
      },
      {
        "astId": 2706,
        "contract": "contracts/Treasury.sol:Treasury",
        "label": "redeemer",
        "offset": 0,
        "slot": "1",
        "type": "t_address"
      },
      {
        "astId": 2710,
        "contract": "contracts/Treasury.sol:Treasury",
        "label": "cTokens",
        "offset": 0,
        "slot": "2",
        "type": "t_mapping(t_address,t_address)"
      }
    ],
    "types": {
      "t_address": {
        "encoding": "inplace",
        "label": "address",
        "numberOfBytes": "20"
      },
      "t_mapping(t_address,t_address)": {
        "encoding": "mapping",
        "key": "t_address",
        "label": "mapping(address => address)",
        "numberOfBytes": "32",
        "value": "t_address"
      },
      "t_uint256": {
        "encoding": "inplace",
        "label": "uint256",
        "numberOfBytes": "32"
      }
    }
  }
}