{
  "address": "0x677ddbd918637E5F2c79e164D402454dE7dA8619",
  "abi": [
    {
      "inputs": [
        {
          "internalType": "address",
          "name": "_treasury",
          "type": "address"
        }
      ],
      "stateMutability": "nonpayable",
      "type": "constructor"
    },
    {
      "anonymous": false,
      "inputs": [
        {
          "indexed": true,
          "internalType": "address",
          "name": "owner",
          "type": "address"
        },
        {
          "indexed": true,
          "internalType": "address",
          "name": "spender",
          "type": "address"
        },
        {
          "indexed": false,
          "internalType": "uint256",
          "name": "value",
          "type": "uint256"
        }
      ],
      "name": "Approval",
      "type": "event"
    },
    {
      "anonymous": false,
      "inputs": [
        {
          "indexed": true,
          "internalType": "address",
          "name": "from",
          "type": "address"
        },
        {
          "indexed": true,
          "internalType": "address",
          "name": "to",
          "type": "address"
        },
        {
          "indexed": false,
          "internalType": "uint256",
          "name": "value",
          "type": "uint256"
        }
      ],
      "name": "Transfer",
      "type": "event"
    },
    {
      "anonymous": false,
      "inputs": [
        {
          "indexed": true,
          "internalType": "address",
          "name": "previousGovernor",
          "type": "address"
        },
        {
          "indexed": true,
          "internalType": "address",
          "name": "proposedGovernor",
          "type": "address"
        }
      ],
      "name": "UpdatedGovernor",
      "type": "event"
    },
    {
      "anonymous": false,
      "inputs": [
        {
          "indexed": true,
          "internalType": "address",
          "name": "previousMinter",
          "type": "address"
        },
        {
          "indexed": true,
          "internalType": "address",
          "name": "newMinter",
          "type": "address"
        }
      ],
      "name": "UpdatedMinter",
      "type": "event"
    },
    {
      "anonymous": false,
      "inputs": [
        {
          "indexed": true,
          "internalType": "address",
          "name": "previousTreasury",
          "type": "address"
        },
        {
          "indexed": true,
          "internalType": "address",
          "name": "newTreasury",
          "type": "address"
        }
      ],
      "name": "UpdatedTreasury",
      "type": "event"
    },
    {
      "inputs": [],
      "name": "DOMAIN_SEPARATOR",
      "outputs": [
        {
          "internalType": "bytes32",
          "name": "",
          "type": "bytes32"
        }
      ],
      "stateMutability": "view",
      "type": "function"
    },
    {
      "inputs": [],
      "name": "acceptGovernorship",
      "outputs": [],
      "stateMutability": "nonpayable",
      "type": "function"
    },
    {
      "inputs": [
        {
          "internalType": "address",
          "name": "owner",
          "type": "address"
        },
        {
          "internalType": "address",
          "name": "spender",
          "type": "address"
        }
      ],
      "name": "allowance",
      "outputs": [
        {
          "internalType": "uint256",
          "name": "",
          "type": "uint256"
        }
      ],
      "stateMutability": "view",
      "type": "function"
    },
    {
      "inputs": [
        {
          "internalType": "address",
          "name": "spender",
          "type": "address"
        },
        {
          "internalType": "uint256",
          "name": "amount",
          "type": "uint256"
        }
      ],
      "name": "approve",
      "outputs": [
        {
          "internalType": "bool",
          "name": "",
          "type": "bool"
        }
      ],
      "stateMutability": "nonpayable",
      "type": "function"
    },
    {
      "inputs": [
        {
          "internalType": "address",
          "name": "account",
          "type": "address"
        }
      ],
      "name": "balanceOf",
      "outputs": [
        {
          "internalType": "uint256",
          "name": "",
          "type": "uint256"
        }
      ],
      "stateMutability": "view",
      "type": "function"
    },
    {
      "inputs": [
        {
          "internalType": "uint256",
          "name": "amount",
          "type": "uint256"
        }
      ],
      "name": "burn",
      "outputs": [],
      "stateMutability": "nonpayable",
      "type": "function"
    },
    {
      "inputs": [
        {
          "internalType": "address",
          "name": "account",
          "type": "address"
        },
        {
          "internalType": "uint256",
          "name": "amount",
          "type": "uint256"
        }
      ],
      "name": "burnFrom",
      "outputs": [],
      "stateMutability": "nonpayable",
      "type": "function"
    },
    {
      "inputs": [],
      "name": "decimals",
      "outputs": [
        {
          "internalType": "uint8",
          "name": "",
          "type": "uint8"
        }
      ],
      "stateMutability": "view",
      "type": "function"
    },
    {
      "inputs": [
        {
          "internalType": "address",
          "name": "spender",
          "type": "address"
        },
        {
          "internalType": "uint256",
          "name": "subtractedValue",
          "type": "uint256"
        }
      ],
      "name": "decreaseAllowance",
      "outputs": [
        {
          "internalType": "bool",
          "name": "",
          "type": "bool"
        }
      ],
      "stateMutability": "nonpayable",
      "type": "function"
    },
    {
      "inputs": [],
      "name": "governor",
      "outputs": [
        {
          "internalType": "address",
          "name": "",
          "type": "address"
        }
      ],
      "stateMutability": "view",
      "type": "function"
    },
    {
      "inputs": [
        {
          "internalType": "address",
          "name": "spender",
          "type": "address"
        },
        {
          "internalType": "uint256",
          "name": "addedValue",
          "type": "uint256"
        }
      ],
      "name": "increaseAllowance",
      "outputs": [
        {
          "internalType": "bool",
          "name": "",
          "type": "bool"
        }
      ],
      "stateMutability": "nonpayable",
      "type": "function"
    },
    {
      "inputs": [
        {
          "internalType": "address",
          "name": "_to",
          "type": "address"
        },
        {
          "internalType": "uint256",
          "name": "_amount",
          "type": "uint256"
        }
      ],
      "name": "mint",
      "outputs": [],
      "stateMutability": "nonpayable",
      "type": "function"
    },
    {
      "inputs": [],
      "name": "minter",
      "outputs": [
        {
          "internalType": "address",
          "name": "",
          "type": "address"
        }
      ],
      "stateMutability": "view",
      "type": "function"
    },
    {
      "inputs": [
        {
          "internalType": "address[]",
          "name": "_recipients",
          "type": "address[]"
        },
        {
          "internalType": "uint256[]",
          "name": "_amounts",
          "type": "uint256[]"
        }
      ],
      "name": "multiTransfer",
      "outputs": [
        {
          "internalType": "bool",
          "name": "",
          "type": "bool"
        }
      ],
      "stateMutability": "nonpayable",
      "type": "function"
    },
    {
      "inputs": [],
      "name": "name",
      "outputs": [
        {
          "internalType": "string",
          "name": "",
          "type": "string"
        }
      ],
      "stateMutability": "view",
      "type": "function"
    },
    {
      "inputs": [
        {
          "internalType": "address",
          "name": "owner",
          "type": "address"
        }
      ],
      "name": "nonces",
      "outputs": [
        {
          "internalType": "uint256",
          "name": "",
          "type": "uint256"
        }
      ],
      "stateMutability": "view",
      "type": "function"
    },
    {
      "inputs": [
        {
          "internalType": "address",
          "name": "owner",
          "type": "address"
        },
        {
          "internalType": "address",
          "name": "spender",
          "type": "address"
        },
        {
          "internalType": "uint256",
          "name": "value",
          "type": "uint256"
        },
        {
          "internalType": "uint256",
          "name": "deadline",
          "type": "uint256"
        },
        {
          "internalType": "uint8",
          "name": "v",
          "type": "uint8"
        },
        {
          "internalType": "bytes32",
          "name": "r",
          "type": "bytes32"
        },
        {
          "internalType": "bytes32",
          "name": "s",
          "type": "bytes32"
        }
      ],
      "name": "permit",
      "outputs": [],
      "stateMutability": "nonpayable",
      "type": "function"
    },
    {
      "inputs": [],
      "name": "symbol",
      "outputs": [
        {
          "internalType": "string",
          "name": "",
          "type": "string"
        }
      ],
      "stateMutability": "view",
      "type": "function"
    },
    {
      "inputs": [],
      "name": "totalSupply",
      "outputs": [
        {
          "internalType": "uint256",
          "name": "",
          "type": "uint256"
        }
      ],
      "stateMutability": "view",
      "type": "function"
    },
    {
      "inputs": [
        {
          "internalType": "address",
          "name": "recipient",
          "type": "address"
        },
        {
          "internalType": "uint256",
          "name": "amount",
          "type": "uint256"
        }
      ],
      "name": "transfer",
      "outputs": [
        {
          "internalType": "bool",
          "name": "",
          "type": "bool"
        }
      ],
      "stateMutability": "nonpayable",
      "type": "function"
    },
    {
      "inputs": [
        {
          "internalType": "address",
          "name": "sender",
          "type": "address"
        },
        {
          "internalType": "address",
          "name": "recipient",
          "type": "address"
        },
        {
          "internalType": "uint256",
          "name": "amount",
          "type": "uint256"
        }
      ],
      "name": "transferFrom",
      "outputs": [
        {
          "internalType": "bool",
          "name": "",
          "type": "bool"
        }
      ],
      "stateMutability": "nonpayable",
      "type": "function"
    },
    {
      "inputs": [
        {
          "internalType": "address",
          "name": "_proposedGovernor",
          "type": "address"
        }
      ],
      "name": "transferGovernorship",
      "outputs": [],
      "stateMutability": "nonpayable",
      "type": "function"
    },
    {
      "inputs": [],
      "name": "treasury",
      "outputs": [
        {
          "internalType": "address",
          "name": "",
          "type": "address"
        }
      ],
      "stateMutability": "view",
      "type": "function"
    },
    {
      "inputs": [
        {
          "internalType": "address",
          "name": "_newMinter",
          "type": "address"
        }
      ],
      "name": "updateMinter",
      "outputs": [],
      "stateMutability": "nonpayable",
      "type": "function"
    },
    {
      "inputs": [
        {
          "internalType": "address",
          "name": "_newTreasury",
          "type": "address"
        }
      ],
      "name": "updateTreasury",
      "outputs": [],
      "stateMutability": "nonpayable",
      "type": "function"
    }
  ],
  "transactionHash": "0xf432b403309e25e400effb23a058a1cf43caca4f5ced9b9644294fe00d385b15",
  "args": [
    "0xB5AbDABE50b5193d4dB92a16011792B22bA3Ef51"
  ],
  "solcInputHash": "2ca97e329a6a43c8b41836cde7a46ae4",
  "bytecode": "0x6101406040527f6e71edae12b1b97f4d1f60370fef10105fa2faae0126114a169c64845d6126c9610120908152503480156200003a57600080fd5b5060405162003f2738038062003f278339818101604052810190620000609190620004bd565b6040518060400160405280600481526020017f5655534400000000000000000000000000000000000000000000000000000000815250806040518060400160405280600181526020017f31000000000000000000000000000000000000000000000000000000000000008152506040518060400160405280600481526020017f56555344000000000000000000000000000000000000000000000000000000008152506040518060400160405280600481526020017f5655534400000000000000000000000000000000000000000000000000000000815250816003908051906020019062000151929190620003f6565b5080600490805190602001906200016a929190620003f6565b50505060008280519060200120905060008280519060200120905060007f8b73c3c69bb8fe3d512ecc4cf759cc79239f7b179b0ffacaa9a75d522b39400f90508260c081815250508160e081815250504660a08181525050620001d5818484620003b260201b60201c565b608081815250508061010081815250505050505050506000620001fd620003ee60201b60201c565b905080600660006101000a81548173ffffffffffffffffffffffffffffffffffffffff021916908373ffffffffffffffffffffffffffffffffffffffff1602179055508073ffffffffffffffffffffffffffffffffffffffff16600073ffffffffffffffffffffffffffffffffffffffff167fd4459d5b8b913cab0244230fd9b1c08b6ceace7fe9230e60d0f74cbffdf849d060405160405180910390a350600073ffffffffffffffffffffffffffffffffffffffff168173ffffffffffffffffffffffffffffffffffffffff1614156200030f576040517f08c379a00000000000000000000000000000000000000000000000000000000081526004016200030690620005a0565b60405180910390fd5b80600960006101000a81548173ffffffffffffffffffffffffffffffffffffffff021916908373ffffffffffffffffffffffffffffffffffffffff1602179055508073ffffffffffffffffffffffffffffffffffffffff16600073ffffffffffffffffffffffffffffffffffffffff167f2ac12ebf7dfd56173c73b2e43941f0faed1c3f7fb6f959191a4ab4bdd3d32e2160405160405180910390a350620006c3565b60008383834630604051602001620003cf95949392919062000543565b6040516020818303038152906040528051906020012090509392505050565b600033905090565b82805462000404906200061b565b90600052602060002090601f01602090048101928262000428576000855562000474565b82601f106200044357805160ff191683800117855562000474565b8280016001018555821562000474579182015b828111156200047357825182559160200191906001019062000456565b5b50905062000483919062000487565b5090565b5b80821115620004a257600081600090555060010162000488565b5090565b600081519050620004b781620006a9565b92915050565b600060208284031215620004d057600080fd5b6000620004e084828501620004a6565b91505092915050565b620004f481620005d3565b82525050565b6200050581620005e7565b82525050565b60006200051a601883620005c2565b9150620005278262000680565b602082019050919050565b6200053d8162000611565b82525050565b600060a0820190506200055a6000830188620004fa565b620005696020830187620004fa565b620005786040830186620004fa565b62000587606083018562000532565b620005966080830184620004e9565b9695505050505050565b60006020820190508181036000830152620005bb816200050b565b9050919050565b600082825260208201905092915050565b6000620005e082620005f1565b9050919050565b6000819050919050565b600073ffffffffffffffffffffffffffffffffffffffff82169050919050565b6000819050919050565b600060028204905060018216806200063457607f821691505b602082108114156200064b576200064a62000651565b5b50919050565b7f4e487b7100000000000000000000000000000000000000000000000000000000600052602260045260246000fd5b7f74726561737572792d616464726573732d69732d7a65726f0000000000000000600082015250565b620006b481620005d3565b8114620006c057600080fd5b50565b60805160a05160c05160e05161010051610120516138146200071360003960006112cb01526000611ad201526000611b1401526000611af301526000611a7f01526000611aa701526138146000f3fe608060405234801561001057600080fd5b50600436106101735760003560e01c80634eb03f6e116100de57806395d89b4111610097578063b6aa515b11610071578063b6aa515b14610474578063d505accf14610490578063dd62ed3e146104ac578063f3b27bc3146104dc57610173565b806395d89b41146103f6578063a457c2d714610414578063a9059cbb1461044457610173565b80634eb03f6e1461032457806361d027b31461034057806370a082311461035e57806379cc67901461038e5780637ecebe00146103aa5780637f51bb1f146103da57610173565b806323b872dd1161013057806323b872dd14610250578063313ce567146102805780633644e5151461029e57806339509351146102bc57806340c10f19146102ec57806342966c681461030857610173565b806306fdde03146101785780630754617214610196578063095ea7b3146101b45780630c340a24146101e457806318160ddd146102025780631e89d54514610220575b600080fd5b6101806104e6565b60405161018d9190612a6f565b60405180910390f35b61019e610578565b6040516101ab9190612925565b60405180910390f35b6101ce60048036038101906101c991906123d1565b61059e565b6040516101db9190612940565b60405180910390f35b6101ec6105bc565b6040516101f99190612925565b60405180910390f35b61020a6105e2565b6040516102179190612dd1565b60405180910390f35b61023a6004803603810190610235919061240d565b6105ec565b6040516102479190612940565b60405180910390f35b61026a600480360381019061026591906122e4565b610725565b6040516102779190612940565b60405180910390f35b610288610826565b6040516102959190612dec565b60405180910390f35b6102a661082f565b6040516102b3919061295b565b60405180910390f35b6102d660048036038101906102d191906123d1565b61083e565b6040516102e39190612940565b60405180910390f35b610306600480360381019061030191906123d1565b6108ea565b005b610322600480360381019061031d9190612479565b61098f565b005b61033e6004803603810190610339919061227f565b6109a3565b005b610348610bfb565b6040516103559190612925565b60405180910390f35b6103786004803603810190610373919061227f565b610c21565b6040516103859190612dd1565b60405180910390f35b6103a860048036038101906103a391906123d1565b610c69565b005b6103c460048036038101906103bf919061227f565b610ced565b6040516103d19190612dd1565b60405180910390f35b6103f460048036038101906103ef919061227f565b610d3d565b005b6103fe610f95565b60405161040b9190612a6f565b60405180910390f35b61042e600480360381019061042991906123d1565b611027565b60405161043b9190612940565b60405180910390f35b61045e600480360381019061045991906123d1565b61111b565b60405161046b9190612940565b60405180910390f35b61048e6004803603810190610489919061227f565b611139565b005b6104aa60048036038101906104a59190612333565b611284565b005b6104c660048036038101906104c191906122a8565b6113c6565b6040516104d39190612dd1565b60405180910390f35b6104e461144d565b005b6060600380546104f590612fc7565b80601f016020809104026020016040519081016040528092919081815260200182805461052190612fc7565b801561056e5780601f106105435761010080835404028352916020019161056e565b820191906000526020600020905b81548152906001019060200180831161055157829003601f168201915b5050505050905090565b600860009054906101000a900473ffffffffffffffffffffffffffffffffffffffff1681565b60006105b26105ab611629565b8484611631565b6001905092915050565b600660009054906101000a900473ffffffffffffffffffffffffffffffffffffffff1681565b6000600254905090565b60008151835114610632576040517f08c379a000000000000000000000000000000000000000000000000000000000815260040161062990612af1565b60405180910390fd5b60005b835181101561071a576106c884828151811061067a577f4e487b7100000000000000000000000000000000000000000000000000000000600052603260045260246000fd5b60200260200101518483815181106106bb577f4e487b7100000000000000000000000000000000000000000000000000000000600052603260045260246000fd5b602002602001015161111b565b610707576040517f08c379a00000000000000000000000000000000000000000000000000000000081526004016106fe90612c71565b60405180910390fd5b80806107129061302a565b915050610635565b506001905092915050565b60006107328484846117fc565b6000600160008673ffffffffffffffffffffffffffffffffffffffff1673ffffffffffffffffffffffffffffffffffffffff168152602001908152602001600020600061077d611629565b73ffffffffffffffffffffffffffffffffffffffff1673ffffffffffffffffffffffffffffffffffffffff168152602001908152602001600020549050828110156107fd576040517f08c379a00000000000000000000000000000000000000000000000000000000081526004016107f490612c51565b60405180910390fd5b61081a85610809611629565b85846108159190612f01565b611631565b60019150509392505050565b60006012905090565b6000610839611a7b565b905090565b60006108e061084b611629565b848460016000610859611629565b73ffffffffffffffffffffffffffffffffffffffff1673ffffffffffffffffffffffffffffffffffffffff16815260200190815260200160002060008873ffffffffffffffffffffffffffffffffffffffff1673ffffffffffffffffffffffffffffffffffffffff168152602001908152602001600020546108db9190612eab565b611631565b6001905092915050565b600860009054906101000a900473ffffffffffffffffffffffffffffffffffffffff1673ffffffffffffffffffffffffffffffffffffffff1661092b611629565b73ffffffffffffffffffffffffffffffffffffffff1614610981576040517f08c379a000000000000000000000000000000000000000000000000000000000815260040161097890612d71565b60405180910390fd5b61098b8282611b3e565b5050565b6109a061099a611629565b82611c92565b50565b6109ab611629565b73ffffffffffffffffffffffffffffffffffffffff16600660009054906101000a900473ffffffffffffffffffffffffffffffffffffffff1673ffffffffffffffffffffffffffffffffffffffff1614610a3a576040517f08c379a0000000000000000000000000000000000000000000000000000000008152600401610a3190612bd1565b60405180910390fd5b600073ffffffffffffffffffffffffffffffffffffffff168173ffffffffffffffffffffffffffffffffffffffff161415610aaa576040517f08c379a0000000000000000000000000000000000000000000000000000000008152600401610aa190612d51565b60405180910390fd5b8073ffffffffffffffffffffffffffffffffffffffff16600860009054906101000a900473ffffffffffffffffffffffffffffffffffffffff1673ffffffffffffffffffffffffffffffffffffffff161415610b3b576040517f08c379a0000000000000000000000000000000000000000000000000000000008152600401610b3290612bf1565b60405180910390fd5b8073ffffffffffffffffffffffffffffffffffffffff16600860009054906101000a900473ffffffffffffffffffffffffffffffffffffffff1673ffffffffffffffffffffffffffffffffffffffff167fc5ece8a171463bd0e4cdac17bf1a8d6bee9fb5ff323566870c8112eb01bb5e4160405160405180910390a380600860006101000a81548173ffffffffffffffffffffffffffffffffffffffff021916908373ffffffffffffffffffffffffffffffffffffffff16021790555050565b600960009054906101000a900473ffffffffffffffffffffffffffffffffffffffff1681565b60008060008373ffffffffffffffffffffffffffffffffffffffff1673ffffffffffffffffffffffffffffffffffffffff168152602001908152602001600020549050919050565b6000610c7c83610c77611629565b6113c6565b905081811015610cc1576040517f08c379a0000000000000000000000000000000000000000000000000000000008152600401610cb890612c91565b60405180910390fd5b610cde83610ccd611629565b8484610cd99190612f01565b611631565b610ce88383611c92565b505050565b6000610d36600560008473ffffffffffffffffffffffffffffffffffffffff1673ffffffffffffffffffffffffffffffffffffffff168152602001908152602001600020611e66565b9050919050565b610d45611629565b73ffffffffffffffffffffffffffffffffffffffff16600660009054906101000a900473ffffffffffffffffffffffffffffffffffffffff1673ffffffffffffffffffffffffffffffffffffffff1614610dd4576040517f08c379a0000000000000000000000000000000000000000000000000000000008152600401610dcb90612bd1565b60405180910390fd5b600073ffffffffffffffffffffffffffffffffffffffff168173ffffffffffffffffffffffffffffffffffffffff161415610e44576040517f08c379a0000000000000000000000000000000000000000000000000000000008152600401610e3b90612b31565b60405180910390fd5b8073ffffffffffffffffffffffffffffffffffffffff16600960009054906101000a900473ffffffffffffffffffffffffffffffffffffffff1673ffffffffffffffffffffffffffffffffffffffff161415610ed5576040517f08c379a0000000000000000000000000000000000000000000000000000000008152600401610ecc90612b51565b60405180910390fd5b8073ffffffffffffffffffffffffffffffffffffffff16600960009054906101000a900473ffffffffffffffffffffffffffffffffffffffff1673ffffffffffffffffffffffffffffffffffffffff167f2ac12ebf7dfd56173c73b2e43941f0faed1c3f7fb6f959191a4ab4bdd3d32e2160405160405180910390a380600960006101000a81548173ffffffffffffffffffffffffffffffffffffffff021916908373ffffffffffffffffffffffffffffffffffffffff16021790555050565b606060048054610fa490612fc7565b80601f0160208091040260200160405190810160405280929190818152602001828054610fd090612fc7565b801561101d5780601f10610ff25761010080835404028352916020019161101d565b820191906000526020600020905b81548152906001019060200180831161100057829003601f168201915b5050505050905090565b60008060016000611036611629565b73ffffffffffffffffffffffffffffffffffffffff1673ffffffffffffffffffffffffffffffffffffffff16815260200190815260200160002060008573ffffffffffffffffffffffffffffffffffffffff1673ffffffffffffffffffffffffffffffffffffffff168152602001908152602001600020549050828110156110f3576040517f08c379a00000000000000000000000000000000000000000000000000000000081526004016110ea90612d91565b60405180910390fd5b6111106110fe611629565b85858461110b9190612f01565b611631565b600191505092915050565b600061112f611128611629565b84846117fc565b6001905092915050565b611141611629565b73ffffffffffffffffffffffffffffffffffffffff16600660009054906101000a900473ffffffffffffffffffffffffffffffffffffffff1673ffffffffffffffffffffffffffffffffffffffff16146111d0576040517f08c379a00000000000000000000000000000000000000000000000000000000081526004016111c790612bd1565b60405180910390fd5b600073ffffffffffffffffffffffffffffffffffffffff168173ffffffffffffffffffffffffffffffffffffffff161415611240576040517f08c379a000000000000000000000000000000000000000000000000000000000815260040161123790612d31565b60405180910390fd5b80600760006101000a81548173ffffffffffffffffffffffffffffffffffffffff021916908373ffffffffffffffffffffffffffffffffffffffff16021790555050565b834211156112c7576040517f08c379a00000000000000000000000000000000000000000000000000000000081526004016112be90612b71565b60405180910390fd5b60007f00000000000000000000000000000000000000000000000000000000000000008888886112f68c611e74565b8960405160200161130c96959493929190612976565b604051602081830303815290604052805190602001209050600061132f82611ed2565b9050600061133f82878787611eec565b90508973ffffffffffffffffffffffffffffffffffffffff168173ffffffffffffffffffffffffffffffffffffffff16146113af576040517f08c379a00000000000000000000000000000000000000000000000000000000081526004016113a690612c31565b60405180910390fd5b6113ba8a8a8a611631565b50505050505050505050565b6000600160008473ffffffffffffffffffffffffffffffffffffffff1673ffffffffffffffffffffffffffffffffffffffff16815260200190815260200160002060008373ffffffffffffffffffffffffffffffffffffffff1673ffffffffffffffffffffffffffffffffffffffff16815260200190815260200160002054905092915050565b611455611629565b73ffffffffffffffffffffffffffffffffffffffff16600760009054906101000a900473ffffffffffffffffffffffffffffffffffffffff1673ffffffffffffffffffffffffffffffffffffffff16146114e4576040517f08c379a00000000000000000000000000000000000000000000000000000000081526004016114db90612cf1565b60405180910390fd5b600760009054906101000a900473ffffffffffffffffffffffffffffffffffffffff1673ffffffffffffffffffffffffffffffffffffffff16600660009054906101000a900473ffffffffffffffffffffffffffffffffffffffff1673ffffffffffffffffffffffffffffffffffffffff167fd4459d5b8b913cab0244230fd9b1c08b6ceace7fe9230e60d0f74cbffdf849d060405160405180910390a3600760009054906101000a900473ffffffffffffffffffffffffffffffffffffffff16600660006101000a81548173ffffffffffffffffffffffffffffffffffffffff021916908373ffffffffffffffffffffffffffffffffffffffff1602179055506000600760006101000a81548173ffffffffffffffffffffffffffffffffffffffff021916908373ffffffffffffffffffffffffffffffffffffffff160217905550565b600033905090565b600073ffffffffffffffffffffffffffffffffffffffff168373ffffffffffffffffffffffffffffffffffffffff1614156116a1576040517f08c379a000000000000000000000000000000000000000000000000000000000815260040161169890612d11565b60405180910390fd5b600073ffffffffffffffffffffffffffffffffffffffff168273ffffffffffffffffffffffffffffffffffffffff161415611711576040517f08c379a000000000000000000000000000000000000000000000000000000000815260040161170890612b11565b60405180910390fd5b80600160008573ffffffffffffffffffffffffffffffffffffffff1673ffffffffffffffffffffffffffffffffffffffff16815260200190815260200160002060008473ffffffffffffffffffffffffffffffffffffffff1673ffffffffffffffffffffffffffffffffffffffff168152602001908152602001600020819055508173ffffffffffffffffffffffffffffffffffffffff168373ffffffffffffffffffffffffffffffffffffffff167f8c5be1e5ebec7d5bd14f71427d1e84f3dd0314c0f7b2291e5b200ac8c7c3b925836040516117ef9190612dd1565b60405180910390a3505050565b600073ffffffffffffffffffffffffffffffffffffffff168373ffffffffffffffffffffffffffffffffffffffff16141561186c576040517f08c379a000000000000000000000000000000000000000000000000000000000815260040161186390612cd1565b60405180910390fd5b600073ffffffffffffffffffffffffffffffffffffffff168273ffffffffffffffffffffffffffffffffffffffff1614156118dc576040517f08c379a00000000000000000000000000000000000000000000000000000000081526004016118d390612ab1565b60405180910390fd5b6118e7838383612077565b60008060008573ffffffffffffffffffffffffffffffffffffffff1673ffffffffffffffffffffffffffffffffffffffff1681526020019081526020016000205490508181101561196d576040517f08c379a000000000000000000000000000000000000000000000000000000000815260040161196490612b91565b60405180910390fd5b81816119799190612f01565b6000808673ffffffffffffffffffffffffffffffffffffffff1673ffffffffffffffffffffffffffffffffffffffff16815260200190815260200160002081905550816000808573ffffffffffffffffffffffffffffffffffffffff1673ffffffffffffffffffffffffffffffffffffffff1681526020019081526020016000206000828254611a099190612eab565b925050819055508273ffffffffffffffffffffffffffffffffffffffff168473ffffffffffffffffffffffffffffffffffffffff167fddf252ad1be2c89b69c2b068fc378daa952ba7f163c4a11628f55a4df523b3ef84604051611a6d9190612dd1565b60405180910390a350505050565b60007f0000000000000000000000000000000000000000000000000000000000000000461415611acd577f00000000000000000000000000000000000000000000000000000000000000009050611b3b565b611b387f00000000000000000000000000000000000000000000000000000000000000007f00000000000000000000000000000000000000000000000000000000000000007f000000000000000000000000000000000000000000000000000000000000000061207c565b90505b90565b600073ffffffffffffffffffffffffffffffffffffffff168273ffffffffffffffffffffffffffffffffffffffff161415611bae576040517f08c379a0000000000000000000000000000000000000000000000000000000008152600401611ba590612db1565b60405180910390fd5b611bba60008383612077565b8060026000828254611bcc9190612eab565b92505081905550806000808473ffffffffffffffffffffffffffffffffffffffff1673ffffffffffffffffffffffffffffffffffffffff1681526020019081526020016000206000828254611c219190612eab565b925050819055508173ffffffffffffffffffffffffffffffffffffffff16600073ffffffffffffffffffffffffffffffffffffffff167fddf252ad1be2c89b69c2b068fc378daa952ba7f163c4a11628f55a4df523b3ef83604051611c869190612dd1565b60405180910390a35050565b600073ffffffffffffffffffffffffffffffffffffffff168273ffffffffffffffffffffffffffffffffffffffff161415611d02576040517f08c379a0000000000000000000000000000000000000000000000000000000008152600401611cf990612cb1565b60405180910390fd5b611d0e82600083612077565b60008060008473ffffffffffffffffffffffffffffffffffffffff1673ffffffffffffffffffffffffffffffffffffffff16815260200190815260200160002054905081811015611d94576040517f08c379a0000000000000000000000000000000000000000000000000000000008152600401611d8b90612ad1565b60405180910390fd5b8181611da09190612f01565b6000808573ffffffffffffffffffffffffffffffffffffffff1673ffffffffffffffffffffffffffffffffffffffff168152602001908152602001600020819055508160026000828254611df49190612f01565b92505081905550600073ffffffffffffffffffffffffffffffffffffffff168373ffffffffffffffffffffffffffffffffffffffff167fddf252ad1be2c89b69c2b068fc378daa952ba7f163c4a11628f55a4df523b3ef84604051611e599190612dd1565b60405180910390a3505050565b600081600001549050919050565b600080600560008473ffffffffffffffffffffffffffffffffffffffff1673ffffffffffffffffffffffffffffffffffffffff1681526020019081526020016000209050611ec181611e66565b9150611ecc816120b6565b50919050565b6000611ee5611edf611a7b565b836120cc565b9050919050565b60007f7fffffffffffffffffffffffffffffff5d576e7357a4501ddfe92f46681b20a08260001c1115611f54576040517f08c379a0000000000000000000000000000000000000000000000000000000008152600401611f4b90612bb1565b60405180910390fd5b601b8460ff161480611f695750601c8460ff16145b611fa8576040517f08c379a0000000000000000000000000000000000000000000000000000000008152600401611f9f90612c11565b60405180910390fd5b600060018686868660405160008152602001604052604051611fcd9493929190612a2a565b6020604051602081039080840390855afa158015611fef573d6000803e3d6000fd5b505050602060405103519050600073ffffffffffffffffffffffffffffffffffffffff168173ffffffffffffffffffffffffffffffffffffffff16141561206b576040517f08c379a000000000000000000000000000000000000000000000000000000000815260040161206290612a91565b60405180910390fd5b80915050949350505050565b505050565b600083838346306040516020016120979594939291906129d7565b6040516020818303038152906040528051906020012090509392505050565b6001816000016000828254019250508190555050565b600082826040516020016120e19291906128ee565b60405160208183030381529060405280519060200120905092915050565b600061211261210d84612e2c565b612e07565b9050808382526020820190508285602086028201111561213157600080fd5b60005b85811015612161578161214788826121d7565b845260208401935060208301925050600181019050612134565b5050509392505050565b600061217e61217984612e58565b612e07565b9050808382526020820190508285602086028201111561219d57600080fd5b60005b858110156121cd57816121b38882612255565b8452602084019350602083019250506001810190506121a0565b5050509392505050565b6000813590506121e681613782565b92915050565b600082601f8301126121fd57600080fd5b813561220d8482602086016120ff565b91505092915050565b600082601f83011261222757600080fd5b813561223784826020860161216b565b91505092915050565b60008135905061224f81613799565b92915050565b600081359050612264816137b0565b92915050565b600081359050612279816137c7565b92915050565b60006020828403121561229157600080fd5b600061229f848285016121d7565b91505092915050565b600080604083850312156122bb57600080fd5b60006122c9858286016121d7565b92505060206122da858286016121d7565b9150509250929050565b6000806000606084860312156122f957600080fd5b6000612307868287016121d7565b9350506020612318868287016121d7565b925050604061232986828701612255565b9150509250925092565b600080600080600080600060e0888a03121561234e57600080fd5b600061235c8a828b016121d7565b975050602061236d8a828b016121d7565b965050604061237e8a828b01612255565b955050606061238f8a828b01612255565b94505060806123a08a828b0161226a565b93505060a06123b18a828b01612240565b92505060c06123c28a828b01612240565b91505092959891949750929550565b600080604083850312156123e457600080fd5b60006123f2858286016121d7565b925050602061240385828601612255565b9150509250929050565b6000806040838503121561242057600080fd5b600083013567ffffffffffffffff81111561243a57600080fd5b612446858286016121ec565b925050602083013567ffffffffffffffff81111561246357600080fd5b61246f85828601612216565b9150509250929050565b60006020828403121561248b57600080fd5b600061249984828501612255565b91505092915050565b6124ab81612f35565b82525050565b6124ba81612f47565b82525050565b6124c981612f53565b82525050565b6124e06124db82612f53565b613073565b82525050565b60006124f182612e84565b6124fb8185612e8f565b935061250b818560208601612f94565b6125148161310a565b840191505092915050565b600061252c601883612e8f565b91506125378261311b565b602082019050919050565b600061254f602383612e8f565b915061255a82613144565b604082019050919050565b6000612572602283612e8f565b915061257d82613193565b604082019050919050565b6000612595601583612e8f565b91506125a0826131e2565b602082019050919050565b60006125b8602283612e8f565b91506125c38261320b565b604082019050919050565b60006125db600283612ea0565b91506125e68261325a565b600282019050919050565b60006125fe601883612e8f565b915061260982613283565b602082019050919050565b6000612621600d83612e8f565b915061262c826132ac565b602082019050919050565b6000612644601d83612e8f565b915061264f826132d5565b602082019050919050565b6000612667602683612e8f565b9150612672826132fe565b604082019050919050565b600061268a602283612e8f565b91506126958261334d565b604082019050919050565b60006126ad601a83612e8f565b91506126b88261339c565b602082019050919050565b60006126d0600b83612e8f565b91506126db826133c5565b602082019050919050565b60006126f3602283612e8f565b91506126fe826133ee565b604082019050919050565b6000612716601e83612e8f565b91506127218261343d565b602082019050919050565b6000612739602883612e8f565b915061274482613466565b604082019050919050565b600061275c601583612e8f565b9150612767826134b5565b602082019050919050565b600061277f602483612e8f565b915061278a826134de565b604082019050919050565b60006127a2602183612e8f565b91506127ad8261352d565b604082019050919050565b60006127c5602583612e8f565b91506127d08261357c565b604082019050919050565b60006127e8602383612e8f565b91506127f3826135cb565b604082019050919050565b600061280b602483612e8f565b91506128168261361a565b604082019050919050565b600061282e602183612e8f565b915061283982613669565b604082019050919050565b6000612851601683612e8f565b915061285c826136b8565b602082019050919050565b6000612874601483612e8f565b915061287f826136e1565b602082019050919050565b6000612897602583612e8f565b91506128a28261370a565b604082019050919050565b60006128ba601f83612e8f565b91506128c582613759565b602082019050919050565b6128d981612f7d565b82525050565b6128e881612f87565b82525050565b60006128f9826125ce565b915061290582856124cf565b60208201915061291582846124cf565b6020820191508190509392505050565b600060208201905061293a60008301846124a2565b92915050565b600060208201905061295560008301846124b1565b92915050565b600060208201905061297060008301846124c0565b92915050565b600060c08201905061298b60008301896124c0565b61299860208301886124a2565b6129a560408301876124a2565b6129b260608301866128d0565b6129bf60808301856128d0565b6129cc60a08301846128d0565b979650505050505050565b600060a0820190506129ec60008301886124c0565b6129f960208301876124c0565b612a0660408301866124c0565b612a1360608301856128d0565b612a2060808301846124a2565b9695505050505050565b6000608082019050612a3f60008301876124c0565b612a4c60208301866128df565b612a5960408301856124c0565b612a6660608301846124c0565b95945050505050565b60006020820190508181036000830152612a8981846124e6565b905092915050565b60006020820190508181036000830152612aaa8161251f565b9050919050565b60006020820190508181036000830152612aca81612542565b9050919050565b60006020820190508181036000830152612aea81612565565b9050919050565b60006020820190508181036000830152612b0a81612588565b9050919050565b60006020820190508181036000830152612b2a816125ab565b9050919050565b60006020820190508181036000830152612b4a816125f1565b9050919050565b60006020820190508181036000830152612b6a81612614565b9050919050565b60006020820190508181036000830152612b8a81612637565b9050919050565b60006020820190508181036000830152612baa8161265a565b9050919050565b60006020820190508181036000830152612bca8161267d565b9050919050565b60006020820190508181036000830152612bea816126a0565b9050919050565b60006020820190508181036000830152612c0a816126c3565b9050919050565b60006020820190508181036000830152612c2a816126e6565b9050919050565b60006020820190508181036000830152612c4a81612709565b9050919050565b60006020820190508181036000830152612c6a8161272c565b9050919050565b60006020820190508181036000830152612c8a8161274f565b9050919050565b60006020820190508181036000830152612caa81612772565b9050919050565b60006020820190508181036000830152612cca81612795565b9050919050565b60006020820190508181036000830152612cea816127b8565b9050919050565b60006020820190508181036000830152612d0a816127db565b9050919050565b60006020820190508181036000830152612d2a816127fe565b9050919050565b60006020820190508181036000830152612d4a81612821565b9050919050565b60006020820190508181036000830152612d6a81612844565b9050919050565b60006020820190508181036000830152612d8a81612867565b9050919050565b60006020820190508181036000830152612daa8161288a565b9050919050565b60006020820190508181036000830152612dca816128ad565b9050919050565b6000602082019050612de660008301846128d0565b92915050565b6000602082019050612e0160008301846128df565b92915050565b6000612e11612e22565b9050612e1d8282612ff9565b919050565b6000604051905090565b600067ffffffffffffffff821115612e4757612e466130db565b5b602082029050602081019050919050565b600067ffffffffffffffff821115612e7357612e726130db565b5b602082029050602081019050919050565b600081519050919050565b600082825260208201905092915050565b600081905092915050565b6000612eb682612f7d565b9150612ec183612f7d565b9250827fffffffffffffffffffffffffffffffffffffffffffffffffffffffffffffffff03821115612ef657612ef561307d565b5b828201905092915050565b6000612f0c82612f7d565b9150612f1783612f7d565b925082821015612f2a57612f2961307d565b5b828203905092915050565b6000612f4082612f5d565b9050919050565b60008115159050919050565b6000819050919050565b600073ffffffffffffffffffffffffffffffffffffffff82169050919050565b6000819050919050565b600060ff82169050919050565b60005b83811015612fb2578082015181840152602081019050612f97565b83811115612fc1576000848401525b50505050565b60006002820490506001821680612fdf57607f821691505b60208210811415612ff357612ff26130ac565b5b50919050565b6130028261310a565b810181811067ffffffffffffffff82111715613021576130206130db565b5b80604052505050565b600061303582612f7d565b91507fffffffffffffffffffffffffffffffffffffffffffffffffffffffffffffffff8214156130685761306761307d565b5b600182019050919050565b6000819050919050565b7f4e487b7100000000000000000000000000000000000000000000000000000000600052601160045260246000fd5b7f4e487b7100000000000000000000000000000000000000000000000000000000600052602260045260246000fd5b7f4e487b7100000000000000000000000000000000000000000000000000000000600052604160045260246000fd5b6000601f19601f8301169050919050565b7f45434453413a20696e76616c6964207369676e61747572650000000000000000600082015250565b7f45524332303a207472616e7366657220746f20746865207a65726f206164647260008201527f6573730000000000000000000000000000000000000000000000000000000000602082015250565b7f45524332303a206275726e20616d6f756e7420657863656564732062616c616e60008201527f6365000000000000000000000000000000000000000000000000000000000000602082015250565b7f696e7075742d6c656e6774682d6d69736d617463680000000000000000000000600082015250565b7f45524332303a20617070726f766520746f20746865207a65726f20616464726560008201527f7373000000000000000000000000000000000000000000000000000000000000602082015250565b7f1901000000000000000000000000000000000000000000000000000000000000600082015250565b7f74726561737572792d616464726573732d69732d7a65726f0000000000000000600082015250565b7f73616d652d747265617375727900000000000000000000000000000000000000600082015250565b7f45524332305065726d69743a206578706972656420646561646c696e65000000600082015250565b7f45524332303a207472616e7366657220616d6f756e742065786365656473206260008201527f616c616e63650000000000000000000000000000000000000000000000000000602082015250565b7f45434453413a20696e76616c6964207369676e6174757265202773272076616c60008201527f7565000000000000000000000000000000000000000000000000000000000000602082015250565b7f63616c6c65722d69732d6e6f742d7468652d676f7665726e6f72000000000000600082015250565b7f73616d652d6d696e746572000000000000000000000000000000000000000000600082015250565b7f45434453413a20696e76616c6964207369676e6174757265202776272076616c60008201527f7565000000000000000000000000000000000000000000000000000000000000602082015250565b7f45524332305065726d69743a20696e76616c6964207369676e61747572650000600082015250565b7f45524332303a207472616e7366657220616d6f756e742065786365656473206160008201527f6c6c6f77616e6365000000000000000000000000000000000000000000000000602082015250565b7f6d756c74692d7472616e736665722d6661696c65640000000000000000000000600082015250565b7f45524332303a206275726e20616d6f756e74206578636565647320616c6c6f7760008201527f616e636500000000000000000000000000000000000000000000000000000000602082015250565b7f45524332303a206275726e2066726f6d20746865207a65726f2061646472657360008201527f7300000000000000000000000000000000000000000000000000000000000000602082015250565b7f45524332303a207472616e736665722066726f6d20746865207a65726f20616460008201527f6472657373000000000000000000000000000000000000000000000000000000602082015250565b7f63616c6c65722d69732d6e6f742d7468652d70726f706f7365642d676f76657260008201527f6e6f720000000000000000000000000000000000000000000000000000000000602082015250565b7f45524332303a20617070726f76652066726f6d20746865207a65726f2061646460008201527f7265737300000000000000000000000000000000000000000000000000000000602082015250565b7f70726f706f7365642d676f7665726e6f722d69732d7a65726f2d61646472657360008201527f7300000000000000000000000000000000000000000000000000000000000000602082015250565b7f6d696e7465722d616464726573732d69732d7a65726f00000000000000000000600082015250565b7f63616c6c65722d69732d6e6f742d6d696e746572000000000000000000000000600082015250565b7f45524332303a2064656372656173656420616c6c6f77616e63652062656c6f7760008201527f207a65726f000000000000000000000000000000000000000000000000000000602082015250565b7f45524332303a206d696e7420746f20746865207a65726f206164647265737300600082015250565b61378b81612f35565b811461379657600080fd5b50565b6137a281612f53565b81146137ad57600080fd5b50565b6137b981612f7d565b81146137c457600080fd5b50565b6137d081612f87565b81146137db57600080fd5b5056fea26469706673582212202bc6bdc8c439c3bbcf46baf03bf8e7b05aa66cb88192eeab3ed6d475dfeb0b9764736f6c63430008030033",
  "devdoc": {
    "kind": "dev",
    "methods": {
      "DOMAIN_SEPARATOR()": {
        "details": "See {IERC20Permit-DOMAIN_SEPARATOR}."
      },
      "acceptGovernorship()": {
        "details": "Allows new governor to accept governorship of the contract."
      },
      "allowance(address,address)": {
        "details": "See {IERC20-allowance}."
      },
      "approve(address,uint256)": {
        "details": "See {IERC20-approve}. Requirements: - `spender` cannot be the zero address."
      },
      "balanceOf(address)": {
        "details": "See {IERC20-balanceOf}."
      },
      "burn(uint256)": {
        "details": "Destroys `amount` tokens from the caller. See {ERC20-_burn}."
      },
      "burnFrom(address,uint256)": {
        "details": "Destroys `amount` tokens from `account`, deducting from the caller's allowance. See {ERC20-_burn} and {ERC20-allowance}. Requirements: - the caller must have allowance for ``accounts``'s tokens of at least `amount`."
      },
      "decimals()": {
        "details": "Returns the number of decimals used to get its user representation. For example, if `decimals` equals `2`, a balance of `505` tokens should be displayed to a user as `5,05` (`505 / 10 ** 2`). Tokens usually opt for a value of 18, imitating the relationship between Ether and Wei. This is the value {ERC20} uses, unless this function is overridden; NOTE: This information is only used for _display_ purposes: it in no way affects any of the arithmetic of the contract, including {IERC20-balanceOf} and {IERC20-transfer}."
      },
      "decreaseAllowance(address,uint256)": {
        "details": "Atomically decreases the allowance granted to `spender` by the caller. This is an alternative to {approve} that can be used as a mitigation for problems described in {IERC20-approve}. Emits an {Approval} event indicating the updated allowance. Requirements: - `spender` cannot be the zero address. - `spender` must have allowance for the caller of at least `subtractedValue`."
      },
      "increaseAllowance(address,uint256)": {
        "details": "Atomically increases the allowance granted to `spender` by the caller. This is an alternative to {approve} that can be used as a mitigation for problems described in {IERC20-approve}. Emits an {Approval} event indicating the updated allowance. Requirements: - `spender` cannot be the zero address."
      },
      "mint(address,uint256)": {
        "params": {
          "_amount": "VUSD amount to mint",
          "_to": "Address where VUSD will be minted"
        }
      },
      "multiTransfer(address[],uint256[])": {
        "details": "Address array and amount array are 1:1 and are in order.",
        "params": {
          "_amounts": "array of token amounts",
          "_recipients": "array of recipient addresses"
        },
        "returns": {
          "_0": "true/false"
        }
      },
      "name()": {
        "details": "Returns the name of the token."
      },
      "nonces(address)": {
        "details": "See {IERC20Permit-nonces}."
      },
      "permit(address,address,uint256,uint256,uint8,bytes32,bytes32)": {
        "details": "See {IERC20Permit-permit}."
      },
      "symbol()": {
        "details": "Returns the symbol of the token, usually a shorter version of the name."
      },
      "totalSupply()": {
        "details": "See {IERC20-totalSupply}."
      },
      "transfer(address,uint256)": {
        "details": "See {IERC20-transfer}. Requirements: - `recipient` cannot be the zero address. - the caller must have a balance of at least `amount`."
      },
      "transferFrom(address,address,uint256)": {
        "details": "See {IERC20-transferFrom}. Emits an {Approval} event indicating the updated allowance. This is not required by the EIP. See the note at the beginning of {ERC20}. Requirements: - `sender` and `recipient` cannot be the zero address. - `sender` must have a balance of at least `amount`. - the caller must have allowance for ``sender``'s tokens of at least `amount`."
      },
      "transferGovernorship(address)": {
        "details": "Transfers governorship of the contract to a new account (`proposedGovernor`). Can only be called by the current owner."
      },
      "updateMinter(address)": {
        "params": {
          "_newMinter": "new minter address"
        }
      },
      "updateTreasury(address)": {
        "params": {
          "_newTreasury": "new treasury address"
        }
      }
    },
    "title": "VUSD, A stablecoin pegged to the US Dollar, backed by interest-generating collateral.",
    "version": 1
  },
  "userdoc": {
    "kind": "user",
    "methods": {
      "mint(address,uint256)": {
        "notice": "Mint VUSD, only minter can call this."
      },
      "multiTransfer(address[],uint256[])": {
        "notice": "Transfer tokens to multiple recipient"
      },
      "updateMinter(address)": {
        "notice": "Update VUSD minter address"
      },
      "updateTreasury(address)": {
        "notice": "Update VUSD treasury address"
      }
    },
    "version": 1
  },
  "storageLayout": {
    "storage": [
      {
        "astId": 55,
        "contract": "contracts/VUSD.sol:VUSD",
        "label": "_balances",
        "offset": 0,
        "slot": "0",
        "type": "t_mapping(t_address,t_uint256)"
      },
      {
        "astId": 61,
        "contract": "contracts/VUSD.sol:VUSD",
        "label": "_allowances",
        "offset": 0,
        "slot": "1",
        "type": "t_mapping(t_address,t_mapping(t_address,t_uint256))"
      },
      {
        "astId": 63,
        "contract": "contracts/VUSD.sol:VUSD",
        "label": "_totalSupply",
        "offset": 0,
        "slot": "2",
        "type": "t_uint256"
      },
      {
        "astId": 65,
        "contract": "contracts/VUSD.sol:VUSD",
        "label": "_name",
        "offset": 0,
        "slot": "3",
        "type": "t_string_storage"
      },
      {
        "astId": 67,
        "contract": "contracts/VUSD.sol:VUSD",
        "label": "_symbol",
        "offset": 0,
        "slot": "4",
        "type": "t_string_storage"
      },
      {
        "astId": 733,
        "contract": "contracts/VUSD.sol:VUSD",
        "label": "_nonces",
        "offset": 0,
        "slot": "5",
        "type": "t_mapping(t_address,t_struct(Counter)1464_storage)"
      },
      {
        "astId": 1809,
        "contract": "contracts/VUSD.sol:VUSD",
        "label": "governor",
        "offset": 0,
        "slot": "6",
        "type": "t_address"
      },
      {
        "astId": 1811,
        "contract": "contracts/VUSD.sol:VUSD",
        "label": "proposedGovernor",
        "offset": 0,
        "slot": "7",
        "type": "t_address"
      },
      {
        "astId": 3233,
        "contract": "contracts/VUSD.sol:VUSD",
        "label": "minter",
        "offset": 0,
        "slot": "8",
        "type": "t_address"
      },
      {
        "astId": 3235,
        "contract": "contracts/VUSD.sol:VUSD",
        "label": "treasury",
        "offset": 0,
        "slot": "9",
        "type": "t_address"
      }
    ],
    "types": {
      "t_address": {
        "encoding": "inplace",
        "label": "address",
        "numberOfBytes": "20"
      },
      "t_mapping(t_address,t_mapping(t_address,t_uint256))": {
        "encoding": "mapping",
        "key": "t_address",
        "label": "mapping(address => mapping(address => uint256))",
        "numberOfBytes": "32",
        "value": "t_mapping(t_address,t_uint256)"
      },
      "t_mapping(t_address,t_struct(Counter)1464_storage)": {
        "encoding": "mapping",
        "key": "t_address",
        "label": "mapping(address => struct Counters.Counter)",
        "numberOfBytes": "32",
        "value": "t_struct(Counter)1464_storage"
      },
      "t_mapping(t_address,t_uint256)": {
        "encoding": "mapping",
        "key": "t_address",
        "label": "mapping(address => uint256)",
        "numberOfBytes": "32",
        "value": "t_uint256"
      },
      "t_string_storage": {
        "encoding": "bytes",
        "label": "string",
        "numberOfBytes": "32"
      },
      "t_struct(Counter)1464_storage": {
        "encoding": "inplace",
        "label": "struct Counters.Counter",
        "members": [
          {
            "astId": 1463,
            "contract": "contracts/VUSD.sol:VUSD",
            "label": "_value",
            "offset": 0,
            "slot": "0",
            "type": "t_uint256"
          }
        ],
        "numberOfBytes": "32"
      },
      "t_uint256": {
        "encoding": "inplace",
        "label": "uint256",
        "numberOfBytes": "32"
      }
    }
  }
}